{
	"RisqueDeContrepartie.sol": {
		"GestionnaireRisqueContrepartie": {
			"abi": [
				{
					"anonymous": false,
					"inputs": [
						{
							"indexed": true,
							"internalType": "address",
							"name": "contrepartie",
							"type": "address"
						},
						{
							"indexed": false,
							"internalType": "string",
							"name": "typeAlerte",
							"type": "string"
						},
						{
							"indexed": false,
							"internalType": "uint256",
							"name": "valeur",
							"type": "uint256"
						}
					],
					"name": "AlerteRisque",
					"type": "event"
				},
				{
					"anonymous": false,
					"inputs": [
						{
							"indexed": true,
							"internalType": "address",
							"name": "contrepartie",
							"type": "address"
						},
						{
							"indexed": false,
							"internalType": "uint256",
							"name": "limiteExposition",
							"type": "uint256"
						}
					],
					"name": "ContrepartieAjoutee",
					"type": "event"
				},
				{
					"anonymous": false,
					"inputs": [
						{
							"indexed": true,
							"internalType": "address",
							"name": "contrepartie",
							"type": "address"
						}
					],
					"name": "ContrepartieFrozee",
					"type": "event"
				},
				{
					"anonymous": false,
					"inputs": [
						{
							"indexed": true,
							"internalType": "address",
							"name": "contrepartie",
							"type": "address"
						},
						{
							"indexed": false,
							"internalType": "uint256",
							"name": "nouvelleExposition",
							"type": "uint256"
						}
					],
					"name": "ExpositionMiseAJour",
					"type": "event"
				},
				{
					"anonymous": false,
					"inputs": [
						{
							"indexed": true,
							"internalType": "address",
							"name": "contrepartie",
							"type": "address"
						},
						{
							"indexed": false,
							"internalType": "uint256",
							"name": "exposition",
							"type": "uint256"
						}
					],
					"name": "LimiteDepassee",
					"type": "event"
				},
				{
					"inputs": [
						{
							"internalType": "address",
							"name": "_portefeuille",
							"type": "address"
						},
						{
							"internalType": "uint256",
							"name": "_scoreCredit",
							"type": "uint256"
						},
						{
							"internalType": "uint256",
							"name": "_limiteExposition",
							"type": "uint256"
						},
						{
							"internalType": "uint256",
							"name": "_probabiliteDefaut",
							"type": "uint256"
						},
						{
							"internalType": "uint256",
							"name": "_pertesEnCasDeDefaut",
							"type": "uint256"
						}
					],
					"name": "ajouterContrepartie",
					"outputs": [],
					"stateMutability": "nonpayable",
					"type": "function"
				},
				{
					"inputs": [
						{
							"internalType": "address",
							"name": "_portefeuille",
							"type": "address"
						}
					],
					"name": "calculerPertesAttendues",
					"outputs": [
						{
							"internalType": "uint256",
							"name": "",
							"type": "uint256"
						}
					],
					"stateMutability": "view",
					"type": "function"
				},
				{
					"inputs": [
						{
							"internalType": "address",
							"name": "_portefeuille",
							"type": "address"
						}
					],
					"name": "calculerRatioCouverture",
					"outputs": [
						{
							"internalType": "uint256",
							"name": "",
							"type": "uint256"
						}
					],
					"stateMutability": "view",
					"type": "function"
				},
				{
					"inputs": [
						{
							"internalType": "address",
							"name": "_portefeuille",
							"type": "address"
						}
					],
					"name": "calculerRisque",
					"outputs": [
						{
							"internalType": "uint256",
							"name": "",
							"type": "uint256"
						}
					],
					"stateMutability": "view",
					"type": "function"
				},
				{
					"inputs": [
						{
							"internalType": "address",
							"name": "",
							"type": "address"
						}
					],
					"name": "contreparties",
					"outputs": [
						{
							"internalType": "address",
							"name": "portefeuille",
							"type": "address"
						},
						{
							"internalType": "uint256",
							"name": "scoreCredit",
							"type": "uint256"
						},
						{
							"internalType": "uint256",
							"name": "limiteExposition",
							"type": "uint256"
						},
						{
							"internalType": "uint256",
							"name": "expositionCourante",
							"type": "uint256"
						},
						{
							"internalType": "uint256",
							"name": "collateral",
							"type": "uint256"
						},
						{
							"internalType": "uint256",
							"name": "probabiliteDefaut",
							"type": "uint256"
						},
						{
							"internalType": "uint256",
							"name": "pertesEnCasDeDefaut",
							"type": "uint256"
						},
						{
							"internalType": "bool",
							"name": "estActif",
							"type": "bool"
						}
					],
					"stateMutability": "view",
					"type": "function"
				},
				{
					"inputs": [
						{
							"internalType": "address",
							"name": "_portefeuille",
							"type": "address"
						},
						{
							"internalType": "uint256",
							"name": "_nouveauCollateral",
							"type": "uint256"
						}
					],
					"name": "mettreAJourCollateral",
					"outputs": [],
					"stateMutability": "nonpayable",
					"type": "function"
				},
				{
					"inputs": [
						{
							"internalType": "address",
							"name": "_portefeuille",
							"type": "address"
						},
						{
							"internalType": "uint256",
							"name": "_nouvelleExposition",
							"type": "uint256"
						}
					],
					"name": "mettreAJourExposition",
					"outputs": [],
					"stateMutability": "nonpayable",
					"type": "function"
				}
			],
			"devdoc": {
				"kind": "dev",
				"methods": {},
				"version": 1
			},
			"evm": {
				"assembly": "    /* \"RisqueDeContrepartie.sol\":60:5356  contract GestionnaireRisqueContrepartie {... */\n  mstore(0x40, 0x80)\n  callvalue\n  dup1\n  iszero\n  tag_1\n  jumpi\n  0x00\n  dup1\n  revert\ntag_1:\n  pop\n  dataSize(sub_0)\n  dup1\n  dataOffset(sub_0)\n  0x00\n  codecopy\n  0x00\n  return\nstop\n\nsub_0: assembly {\n        /* \"RisqueDeContrepartie.sol\":60:5356  contract GestionnaireRisqueContrepartie {... */\n      mstore(0x40, 0x80)\n      callvalue\n      dup1\n      iszero\n      tag_1\n      jumpi\n      0x00\n      dup1\n      revert\n    tag_1:\n      pop\n      jumpi(tag_2, lt(calldatasize, 0x04))\n      shr(0xe0, calldataload(0x00))\n      dup1\n      0x5d8886c0\n      gt\n      tag_10\n      jumpi\n      dup1\n      0x5d8886c0\n      eq\n      tag_6\n      jumpi\n      dup1\n      0x760b1eee\n      eq\n      tag_7\n      jumpi\n      dup1\n      0x8e068eb0\n      eq\n      tag_8\n      jumpi\n      dup1\n      0xc04dcc30\n      eq\n      tag_9\n      jumpi\n      jump(tag_2)\n    tag_10:\n      dup1\n      0x0aae162e\n      eq\n      tag_3\n      jumpi\n      dup1\n      0x1922701e\n      eq\n      tag_4\n      jumpi\n      dup1\n      0x2d83e6b1\n      eq\n      tag_5\n      jumpi\n    tag_2:\n      0x00\n      dup1\n      revert\n        /* \"RisqueDeContrepartie.sol\":4965:5353  function calculerRatioCouverture(address _portefeuille) public view returns (uint256) {... */\n    tag_3:\n      tag_11\n      0x04\n      dup1\n      calldatasize\n      sub\n      dup2\n      add\n      swap1\n      tag_12\n      swap2\n      swap1\n      tag_13\n      jump\t// in\n    tag_12:\n      tag_14\n      jump\t// in\n    tag_11:\n      mload(0x40)\n      tag_15\n      swap2\n      swap1\n      tag_16\n      jump\t// in\n    tag_15:\n      mload(0x40)\n      dup1\n      swap2\n      sub\n      swap1\n      return\n        /* \"RisqueDeContrepartie.sol\":2086:2693  function mettreAJourExposition(address _portefeuille, uint256 _nouvelleExposition) public {... */\n    tag_4:\n      tag_17\n      0x04\n      dup1\n      calldatasize\n      sub\n      dup2\n      add\n      swap1\n      tag_18\n      swap2\n      swap1\n      tag_19\n      jump\t// in\n    tag_18:\n      tag_20\n      jump\t// in\n    tag_17:\n      stop\n        /* \"RisqueDeContrepartie.sol\":2739:3250  function calculerPertesAttendues(address _portefeuille) public view returns (uint256) {... */\n    tag_5:\n      tag_21\n      0x04\n      dup1\n      calldatasize\n      sub\n      dup2\n      add\n      swap1\n      tag_22\n      swap2\n      swap1\n      tag_13\n      jump\t// in\n    tag_22:\n      tag_23\n      jump\t// in\n    tag_21:\n      mload(0x40)\n      tag_24\n      swap2\n      swap1\n      tag_16\n      jump\t// in\n    tag_24:\n      mload(0x40)\n      dup1\n      swap2\n      sub\n      swap1\n      return\n        /* \"RisqueDeContrepartie.sol\":4554:4917  function mettreAJourCollateral(address _portefeuille, uint256 _nouveauCollateral) public {... */\n    tag_6:\n      tag_25\n      0x04\n      dup1\n      calldatasize\n      sub\n      dup2\n      add\n      swap1\n      tag_26\n      swap2\n      swap1\n      tag_19\n      jump\t// in\n    tag_26:\n      tag_27\n      jump\t// in\n    tag_25:\n      stop\n        /* \"RisqueDeContrepartie.sol\":482:535  mapping(address => Contrepartie) public contreparties */\n    tag_7:\n      tag_28\n      0x04\n      dup1\n      calldatasize\n      sub\n      dup2\n      add\n      swap1\n      tag_29\n      swap2\n      swap1\n      tag_13\n      jump\t// in\n    tag_29:\n      tag_30\n      jump\t// in\n    tag_28:\n      mload(0x40)\n      tag_31\n      swap9\n      swap8\n      swap7\n      swap6\n      swap5\n      swap4\n      swap3\n      swap2\n      swap1\n      tag_32\n      jump\t// in\n    tag_31:\n      mload(0x40)\n      dup1\n      swap2\n      sub\n      swap1\n      return\n        /* \"RisqueDeContrepartie.sol\":4121:4508  function calculerRisque(address _portefeuille) public view returns (uint256) {... */\n    tag_8:\n      tag_33\n      0x04\n      dup1\n      calldatasize\n      sub\n      dup2\n      add\n      swap1\n      tag_34\n      swap2\n      swap1\n      tag_13\n      jump\t// in\n    tag_34:\n      tag_35\n      jump\t// in\n    tag_33:\n      mload(0x40)\n      tag_36\n      swap2\n      swap1\n      tag_16\n      jump\t// in\n    tag_36:\n      mload(0x40)\n      dup1\n      swap2\n      sub\n      swap1\n      return\n        /* \"RisqueDeContrepartie.sol\":1006:2001  function ajouterContrepartie(... */\n    tag_9:\n      tag_37\n      0x04\n      dup1\n      calldatasize\n      sub\n      dup2\n      add\n      swap1\n      tag_38\n      swap2\n      swap1\n      tag_39\n      jump\t// in\n    tag_38:\n      tag_40\n      jump\t// in\n    tag_37:\n      stop\n        /* \"RisqueDeContrepartie.sol\":4965:5353  function calculerRatioCouverture(address _portefeuille) public view returns (uint256) {... */\n    tag_14:\n        /* \"RisqueDeContrepartie.sol\":5042:5049  uint256 */\n      0x00\n        /* \"RisqueDeContrepartie.sol\":5062:5083  Contrepartie memory c */\n      dup1\n        /* \"RisqueDeContrepartie.sol\":5086:5099  contreparties */\n      0x00\n        /* \"RisqueDeContrepartie.sol\":5086:5114  contreparties[_portefeuille] */\n      dup1\n        /* \"RisqueDeContrepartie.sol\":5100:5113  _portefeuille */\n      dup5\n        /* \"RisqueDeContrepartie.sol\":5086:5114  contreparties[_portefeuille] */\n      0xffffffffffffffffffffffffffffffffffffffff\n      and\n      0xffffffffffffffffffffffffffffffffffffffff\n      and\n      dup2\n      mstore\n      0x20\n      add\n      swap1\n      dup2\n      mstore\n      0x20\n      add\n      0x00\n      keccak256\n        /* \"RisqueDeContrepartie.sol\":5062:5114  Contrepartie memory c = contreparties[_portefeuille] */\n      mload(0x40)\n      dup1\n      0x0100\n      add\n      0x40\n      mstore\n      swap1\n      dup2\n      0x00\n      dup3\n      add\n      0x00\n      swap1\n      sload\n      swap1\n      0x0100\n      exp\n      swap1\n      div\n      0xffffffffffffffffffffffffffffffffffffffff\n      and\n      0xffffffffffffffffffffffffffffffffffffffff\n      and\n      0xffffffffffffffffffffffffffffffffffffffff\n      and\n      dup2\n      mstore\n      0x20\n      add\n      0x01\n      dup3\n      add\n      sload\n      dup2\n      mstore\n      0x20\n      add\n      0x02\n      dup3\n      add\n      sload\n      dup2\n      mstore\n      0x20\n      add\n      0x03\n      dup3\n      add\n      sload\n      dup2\n      mstore\n      0x20\n      add\n      0x04\n      dup3\n      add\n      sload\n      dup2\n      mstore\n      0x20\n      add\n      0x05\n      dup3\n      add\n      sload\n      dup2\n      mstore\n      0x20\n      add\n      0x06\n      dup3\n      add\n      sload\n      dup2\n      mstore\n      0x20\n      add\n      0x07\n      dup3\n      add\n      0x00\n      swap1\n      sload\n      swap1\n      0x0100\n      exp\n      swap1\n      div\n      0xff\n      and\n      iszero\n      iszero\n      iszero\n      iszero\n      dup2\n      mstore\n      pop\n      pop\n      swap1\n      pop\n        /* \"RisqueDeContrepartie.sol\":5159:5160  0 */\n      0x00\n        /* \"RisqueDeContrepartie.sol\":5133:5161  c.portefeuille != address(0) */\n      0xffffffffffffffffffffffffffffffffffffffff\n      and\n        /* \"RisqueDeContrepartie.sol\":5133:5134  c */\n      dup2\n        /* \"RisqueDeContrepartie.sol\":5133:5147  c.portefeuille */\n      0x00\n      add\n      mload\n        /* \"RisqueDeContrepartie.sol\":5133:5161  c.portefeuille != address(0) */\n      0xffffffffffffffffffffffffffffffffffffffff\n      and\n      sub\n        /* \"RisqueDeContrepartie.sol\":5125:5190  require(c.portefeuille != address(0), \"Contrepartie introuvable\") */\n      tag_42\n      jumpi\n      mload(0x40)\n      0x08c379a000000000000000000000000000000000000000000000000000000000\n      dup2\n      mstore\n      0x04\n      add\n      tag_43\n      swap1\n      tag_44\n      jump\t// in\n    tag_43:\n      mload(0x40)\n      dup1\n      swap2\n      sub\n      swap1\n      revert\n    tag_42:\n        /* \"RisqueDeContrepartie.sol\":5232:5233  0 */\n      0x00\n        /* \"RisqueDeContrepartie.sol\":5209:5210  c */\n      dup2\n        /* \"RisqueDeContrepartie.sol\":5209:5229  c.expositionCourante */\n      0x60\n      add\n      mload\n        /* \"RisqueDeContrepartie.sol\":5209:5233  c.expositionCourante > 0 */\n      gt\n        /* \"RisqueDeContrepartie.sol\":5201:5282  require(c.expositionCourante > 0, \"Exposition courante doit etre superieure a 0\") */\n      tag_45\n      jumpi\n      mload(0x40)\n      0x08c379a000000000000000000000000000000000000000000000000000000000\n      dup2\n      mstore\n      0x04\n      add\n      tag_46\n      swap1\n      tag_47\n      jump\t// in\n    tag_46:\n      mload(0x40)\n      dup1\n      swap2\n      sub\n      swap1\n      revert\n    tag_45:\n        /* \"RisqueDeContrepartie.sol\":5325:5326  c */\n      dup1\n        /* \"RisqueDeContrepartie.sol\":5325:5345  c.expositionCourante */\n      0x60\n      add\n      mload\n        /* \"RisqueDeContrepartie.sol\":5318:5321  100 */\n      0x64\n        /* \"RisqueDeContrepartie.sol\":5303:5304  c */\n      dup3\n        /* \"RisqueDeContrepartie.sol\":5303:5315  c.collateral */\n      0x80\n      add\n      mload\n        /* \"RisqueDeContrepartie.sol\":5303:5321  c.collateral * 100 */\n      tag_48\n      swap2\n      swap1\n      tag_49\n      jump\t// in\n    tag_48:\n        /* \"RisqueDeContrepartie.sol\":5302:5345  (c.collateral * 100) / c.expositionCourante */\n      tag_50\n      swap2\n      swap1\n      tag_51\n      jump\t// in\n    tag_50:\n        /* \"RisqueDeContrepartie.sol\":5295:5345  return (c.collateral * 100) / c.expositionCourante */\n      swap2\n      pop\n      pop\n        /* \"RisqueDeContrepartie.sol\":4965:5353  function calculerRatioCouverture(address _portefeuille) public view returns (uint256) {... */\n      swap2\n      swap1\n      pop\n      jump\t// out\n        /* \"RisqueDeContrepartie.sol\":2086:2693  function mettreAJourExposition(address _portefeuille, uint256 _nouvelleExposition) public {... */\n    tag_20:\n        /* \"RisqueDeContrepartie.sol\":2187:2209  Contrepartie storage c */\n      0x00\n        /* \"RisqueDeContrepartie.sol\":2212:2225  contreparties */\n      dup1\n        /* \"RisqueDeContrepartie.sol\":2212:2240  contreparties[_portefeuille] */\n      0x00\n        /* \"RisqueDeContrepartie.sol\":2226:2239  _portefeuille */\n      dup5\n        /* \"RisqueDeContrepartie.sol\":2212:2240  contreparties[_portefeuille] */\n      0xffffffffffffffffffffffffffffffffffffffff\n      and\n      0xffffffffffffffffffffffffffffffffffffffff\n      and\n      dup2\n      mstore\n      0x20\n      add\n      swap1\n      dup2\n      mstore\n      0x20\n      add\n      0x00\n      keccak256\n        /* \"RisqueDeContrepartie.sol\":2187:2240  Contrepartie storage c = contreparties[_portefeuille] */\n      swap1\n      pop\n        /* \"RisqueDeContrepartie.sol\":2285:2286  0 */\n      0x00\n        /* \"RisqueDeContrepartie.sol\":2259:2287  c.portefeuille != address(0) */\n      0xffffffffffffffffffffffffffffffffffffffff\n      and\n        /* \"RisqueDeContrepartie.sol\":2259:2260  c */\n      dup2\n        /* \"RisqueDeContrepartie.sol\":2259:2273  c.portefeuille */\n      0x00\n      add\n      0x00\n      swap1\n      sload\n      swap1\n      0x0100\n      exp\n      swap1\n      div\n      0xffffffffffffffffffffffffffffffffffffffff\n      and\n        /* \"RisqueDeContrepartie.sol\":2259:2287  c.portefeuille != address(0) */\n      0xffffffffffffffffffffffffffffffffffffffff\n      and\n      sub\n        /* \"RisqueDeContrepartie.sol\":2251:2316  require(c.portefeuille != address(0), \"Contrepartie introuvable\") */\n      tag_53\n      jumpi\n      mload(0x40)\n      0x08c379a000000000000000000000000000000000000000000000000000000000\n      dup2\n      mstore\n      0x04\n      add\n      tag_54\n      swap1\n      tag_44\n      jump\t// in\n    tag_54:\n      mload(0x40)\n      dup1\n      swap2\n      sub\n      swap1\n      revert\n    tag_53:\n        /* \"RisqueDeContrepartie.sol\":2335:2336  c */\n      dup1\n        /* \"RisqueDeContrepartie.sol\":2335:2345  c.estActif */\n      0x07\n      add\n      0x00\n      swap1\n      sload\n      swap1\n      0x0100\n      exp\n      swap1\n      div\n      0xff\n      and\n        /* \"RisqueDeContrepartie.sol\":2327:2371  require(c.estActif, \"Contrepartie inactive\") */\n      tag_55\n      jumpi\n      mload(0x40)\n      0x08c379a000000000000000000000000000000000000000000000000000000000\n      dup2\n      mstore\n      0x04\n      add\n      tag_56\n      swap1\n      tag_57\n      jump\t// in\n    tag_56:\n      mload(0x40)\n      dup1\n      swap2\n      sub\n      swap1\n      revert\n    tag_55:\n        /* \"RisqueDeContrepartie.sol\":2413:2414  0 */\n      0x00\n        /* \"RisqueDeContrepartie.sol\":2390:2409  _nouvelleExposition */\n      dup3\n        /* \"RisqueDeContrepartie.sol\":2390:2414  _nouvelleExposition >= 0 */\n      lt\n      iszero\n        /* \"RisqueDeContrepartie.sol\":2382:2457  require(_nouvelleExposition >= 0, \"L'exposition ne peut pas etre negative\") */\n      tag_58\n      jumpi\n      mload(0x40)\n      0x08c379a000000000000000000000000000000000000000000000000000000000\n      dup2\n      mstore\n      0x04\n      add\n      tag_59\n      swap1\n      tag_60\n      jump\t// in\n    tag_59:\n      mload(0x40)\n      dup1\n      swap2\n      sub\n      swap1\n      revert\n    tag_58:\n        /* \"RisqueDeContrepartie.sol\":2493:2512  _nouvelleExposition */\n      dup2\n        /* \"RisqueDeContrepartie.sol\":2470:2471  c */\n      dup2\n        /* \"RisqueDeContrepartie.sol\":2470:2490  c.expositionCourante */\n      0x03\n      add\n        /* \"RisqueDeContrepartie.sol\":2470:2512  c.expositionCourante = _nouvelleExposition */\n      dup2\n      swap1\n      sstore\n      pop\n        /* \"RisqueDeContrepartie.sol\":2548:2561  _portefeuille */\n      dup3\n        /* \"RisqueDeContrepartie.sol\":2528:2583  ExpositionMiseAJour(_portefeuille, _nouvelleExposition) */\n      0xffffffffffffffffffffffffffffffffffffffff\n      and\n      0xa6b582f9fa77f5eb299250871d3b51c8ff3655dd554da3f9abb294b3e92f8e1f\n        /* \"RisqueDeContrepartie.sol\":2563:2582  _nouvelleExposition */\n      dup4\n        /* \"RisqueDeContrepartie.sol\":2528:2583  ExpositionMiseAJour(_portefeuille, _nouvelleExposition) */\n      mload(0x40)\n      tag_61\n      swap2\n      swap1\n      tag_16\n      jump\t// in\n    tag_61:\n      mload(0x40)\n      dup1\n      swap2\n      sub\n      swap1\n      log2\n        /* \"RisqueDeContrepartie.sol\":2646:2685  verifierAlertesEtLimites(_portefeuille) */\n      tag_62\n        /* \"RisqueDeContrepartie.sol\":2671:2684  _portefeuille */\n      dup4\n        /* \"RisqueDeContrepartie.sol\":2646:2670  verifierAlertesEtLimites */\n      tag_63\n        /* \"RisqueDeContrepartie.sol\":2646:2685  verifierAlertesEtLimites(_portefeuille) */\n      jump\t// in\n    tag_62:\n        /* \"RisqueDeContrepartie.sol\":2176:2693  {... */\n      pop\n        /* \"RisqueDeContrepartie.sol\":2086:2693  function mettreAJourExposition(address _portefeuille, uint256 _nouvelleExposition) public {... */\n      pop\n      pop\n      jump\t// out\n        /* \"RisqueDeContrepartie.sol\":2739:3250  function calculerPertesAttendues(address _portefeuille) public view returns (uint256) {... */\n    tag_23:\n        /* \"RisqueDeContrepartie.sol\":2816:2823  uint256 */\n      0x00\n        /* \"RisqueDeContrepartie.sol\":2836:2857  Contrepartie memory c */\n      dup1\n        /* \"RisqueDeContrepartie.sol\":2860:2873  contreparties */\n      0x00\n        /* \"RisqueDeContrepartie.sol\":2860:2888  contreparties[_portefeuille] */\n      dup1\n        /* \"RisqueDeContrepartie.sol\":2874:2887  _portefeuille */\n      dup5\n        /* \"RisqueDeContrepartie.sol\":2860:2888  contreparties[_portefeuille] */\n      0xffffffffffffffffffffffffffffffffffffffff\n      and\n      0xffffffffffffffffffffffffffffffffffffffff\n      and\n      dup2\n      mstore\n      0x20\n      add\n      swap1\n      dup2\n      mstore\n      0x20\n      add\n      0x00\n      keccak256\n        /* \"RisqueDeContrepartie.sol\":2836:2888  Contrepartie memory c = contreparties[_portefeuille] */\n      mload(0x40)\n      dup1\n      0x0100\n      add\n      0x40\n      mstore\n      swap1\n      dup2\n      0x00\n      dup3\n      add\n      0x00\n      swap1\n      sload\n      swap1\n      0x0100\n      exp\n      swap1\n      div\n      0xffffffffffffffffffffffffffffffffffffffff\n      and\n      0xffffffffffffffffffffffffffffffffffffffff\n      and\n      0xffffffffffffffffffffffffffffffffffffffff\n      and\n      dup2\n      mstore\n      0x20\n      add\n      0x01\n      dup3\n      add\n      sload\n      dup2\n      mstore\n      0x20\n      add\n      0x02\n      dup3\n      add\n      sload\n      dup2\n      mstore\n      0x20\n      add\n      0x03\n      dup3\n      add\n      sload\n      dup2\n      mstore\n      0x20\n      add\n      0x04\n      dup3\n      add\n      sload\n      dup2\n      mstore\n      0x20\n      add\n      0x05\n      dup3\n      add\n      sload\n      dup2\n      mstore\n      0x20\n      add\n      0x06\n      dup3\n      add\n      sload\n      dup2\n      mstore\n      0x20\n      add\n      0x07\n      dup3\n      add\n      0x00\n      swap1\n      sload\n      swap1\n      0x0100\n      exp\n      swap1\n      div\n      0xff\n      and\n      iszero\n      iszero\n      iszero\n      iszero\n      dup2\n      mstore\n      pop\n      pop\n      swap1\n      pop\n        /* \"RisqueDeContrepartie.sol\":2933:2934  0 */\n      0x00\n        /* \"RisqueDeContrepartie.sol\":2907:2935  c.portefeuille != address(0) */\n      0xffffffffffffffffffffffffffffffffffffffff\n      and\n        /* \"RisqueDeContrepartie.sol\":2907:2908  c */\n      dup2\n        /* \"RisqueDeContrepartie.sol\":2907:2921  c.portefeuille */\n      0x00\n      add\n      mload\n        /* \"RisqueDeContrepartie.sol\":2907:2935  c.portefeuille != address(0) */\n      0xffffffffffffffffffffffffffffffffffffffff\n      and\n      sub\n        /* \"RisqueDeContrepartie.sol\":2899:2964  require(c.portefeuille != address(0), \"Contrepartie introuvable\") */\n      tag_65\n      jumpi\n      mload(0x40)\n      0x08c379a000000000000000000000000000000000000000000000000000000000\n      dup2\n      mstore\n      0x04\n      add\n      tag_66\n      swap1\n      tag_44\n      jump\t// in\n    tag_66:\n      mload(0x40)\n      dup1\n      swap2\n      sub\n      swap1\n      revert\n    tag_65:\n        /* \"RisqueDeContrepartie.sol\":3006:3007  0 */\n      0x00\n        /* \"RisqueDeContrepartie.sol\":2983:2984  c */\n      dup2\n        /* \"RisqueDeContrepartie.sol\":2983:3003  c.expositionCourante */\n      0x60\n      add\n      mload\n        /* \"RisqueDeContrepartie.sol\":2983:3007  c.expositionCourante > 0 */\n      gt\n        /* \"RisqueDeContrepartie.sol\":2975:3040  require(c.expositionCourante > 0, \"Exposition courante invalide\") */\n      tag_67\n      jumpi\n      mload(0x40)\n      0x08c379a000000000000000000000000000000000000000000000000000000000\n      dup2\n      mstore\n      0x04\n      add\n      tag_68\n      swap1\n      tag_69\n      jump\t// in\n    tag_68:\n      mload(0x40)\n      dup1\n      swap2\n      sub\n      swap1\n      revert\n    tag_67:\n        /* \"RisqueDeContrepartie.sol\":3237:3242  10000 */\n      0x2710\n        /* \"RisqueDeContrepartie.sol\":3212:3213  c */\n      dup2\n        /* \"RisqueDeContrepartie.sol\":3212:3233  c.pertesEnCasDeDefaut */\n      0xc0\n      add\n      mload\n        /* \"RisqueDeContrepartie.sol\":3190:3191  c */\n      dup3\n        /* \"RisqueDeContrepartie.sol\":3190:3209  c.probabiliteDefaut */\n      0xa0\n      add\n      mload\n        /* \"RisqueDeContrepartie.sol\":3167:3168  c */\n      dup4\n        /* \"RisqueDeContrepartie.sol\":3167:3187  c.expositionCourante */\n      0x60\n      add\n      mload\n        /* \"RisqueDeContrepartie.sol\":3167:3209  c.expositionCourante * c.probabiliteDefaut */\n      tag_70\n      swap2\n      swap1\n      tag_49\n      jump\t// in\n    tag_70:\n        /* \"RisqueDeContrepartie.sol\":3167:3233  c.expositionCourante * c.probabiliteDefaut * c.pertesEnCasDeDefaut */\n      tag_71\n      swap2\n      swap1\n      tag_49\n      jump\t// in\n    tag_71:\n        /* \"RisqueDeContrepartie.sol\":3166:3242  (c.expositionCourante * c.probabiliteDefaut * c.pertesEnCasDeDefaut) / 10000 */\n      tag_72\n      swap2\n      swap1\n      tag_51\n      jump\t// in\n    tag_72:\n        /* \"RisqueDeContrepartie.sol\":3159:3242  return (c.expositionCourante * c.probabiliteDefaut * c.pertesEnCasDeDefaut) / 10000 */\n      swap2\n      pop\n      pop\n        /* \"RisqueDeContrepartie.sol\":2739:3250  function calculerPertesAttendues(address _portefeuille) public view returns (uint256) {... */\n      swap2\n      swap1\n      pop\n      jump\t// out\n        /* \"RisqueDeContrepartie.sol\":4554:4917  function mettreAJourCollateral(address _portefeuille, uint256 _nouveauCollateral) public {... */\n    tag_27:\n        /* \"RisqueDeContrepartie.sol\":4654:4676  Contrepartie storage c */\n      0x00\n        /* \"RisqueDeContrepartie.sol\":4679:4692  contreparties */\n      dup1\n        /* \"RisqueDeContrepartie.sol\":4679:4707  contreparties[_portefeuille] */\n      0x00\n        /* \"RisqueDeContrepartie.sol\":4693:4706  _portefeuille */\n      dup5\n        /* \"RisqueDeContrepartie.sol\":4679:4707  contreparties[_portefeuille] */\n      0xffffffffffffffffffffffffffffffffffffffff\n      and\n      0xffffffffffffffffffffffffffffffffffffffff\n      and\n      dup2\n      mstore\n      0x20\n      add\n      swap1\n      dup2\n      mstore\n      0x20\n      add\n      0x00\n      keccak256\n        /* \"RisqueDeContrepartie.sol\":4654:4707  Contrepartie storage c = contreparties[_portefeuille] */\n      swap1\n      pop\n        /* \"RisqueDeContrepartie.sol\":4752:4753  0 */\n      0x00\n        /* \"RisqueDeContrepartie.sol\":4726:4754  c.portefeuille != address(0) */\n      0xffffffffffffffffffffffffffffffffffffffff\n      and\n        /* \"RisqueDeContrepartie.sol\":4726:4727  c */\n      dup2\n        /* \"RisqueDeContrepartie.sol\":4726:4740  c.portefeuille */\n      0x00\n      add\n      0x00\n      swap1\n      sload\n      swap1\n      0x0100\n      exp\n      swap1\n      div\n      0xffffffffffffffffffffffffffffffffffffffff\n      and\n        /* \"RisqueDeContrepartie.sol\":4726:4754  c.portefeuille != address(0) */\n      0xffffffffffffffffffffffffffffffffffffffff\n      and\n      sub\n        /* \"RisqueDeContrepartie.sol\":4718:4783  require(c.portefeuille != address(0), \"Contrepartie introuvable\") */\n      tag_74\n      jumpi\n      mload(0x40)\n      0x08c379a000000000000000000000000000000000000000000000000000000000\n      dup2\n      mstore\n      0x04\n      add\n      tag_75\n      swap1\n      tag_44\n      jump\t// in\n    tag_75:\n      mload(0x40)\n      dup1\n      swap2\n      sub\n      swap1\n      revert\n    tag_74:\n        /* \"RisqueDeContrepartie.sol\":4824:4825  0 */\n      0x00\n        /* \"RisqueDeContrepartie.sol\":4802:4820  _nouveauCollateral */\n      dup3\n        /* \"RisqueDeContrepartie.sol\":4802:4825  _nouveauCollateral >= 0 */\n      lt\n      iszero\n        /* \"RisqueDeContrepartie.sol\":4794:4863  require(_nouveauCollateral >= 0, \"n'accepte pas des valeur negative\") */\n      tag_76\n      jumpi\n      mload(0x40)\n      0x08c379a000000000000000000000000000000000000000000000000000000000\n      dup2\n      mstore\n      0x04\n      add\n      tag_77\n      swap1\n      tag_78\n      jump\t// in\n    tag_77:\n      mload(0x40)\n      dup1\n      swap2\n      sub\n      swap1\n      revert\n    tag_76:\n        /* \"RisqueDeContrepartie.sol\":4891:4909  _nouveauCollateral */\n      dup2\n        /* \"RisqueDeContrepartie.sol\":4876:4877  c */\n      dup2\n        /* \"RisqueDeContrepartie.sol\":4876:4888  c.collateral */\n      0x04\n      add\n        /* \"RisqueDeContrepartie.sol\":4876:4909  c.collateral = _nouveauCollateral */\n      dup2\n      swap1\n      sstore\n      pop\n        /* \"RisqueDeContrepartie.sol\":4643:4917  {... */\n      pop\n        /* \"RisqueDeContrepartie.sol\":4554:4917  function mettreAJourCollateral(address _portefeuille, uint256 _nouveauCollateral) public {... */\n      pop\n      pop\n      jump\t// out\n        /* \"RisqueDeContrepartie.sol\":482:535  mapping(address => Contrepartie) public contreparties */\n    tag_30:\n      mstore(0x20, 0x00)\n      dup1\n      0x00\n      mstore\n      keccak256(0x00, 0x40)\n      0x00\n      swap2\n      pop\n      swap1\n      pop\n      dup1\n      0x00\n      add\n      0x00\n      swap1\n      sload\n      swap1\n      0x0100\n      exp\n      swap1\n      div\n      0xffffffffffffffffffffffffffffffffffffffff\n      and\n      swap1\n      dup1\n      0x01\n      add\n      sload\n      swap1\n      dup1\n      0x02\n      add\n      sload\n      swap1\n      dup1\n      0x03\n      add\n      sload\n      swap1\n      dup1\n      0x04\n      add\n      sload\n      swap1\n      dup1\n      0x05\n      add\n      sload\n      swap1\n      dup1\n      0x06\n      add\n      sload\n      swap1\n      dup1\n      0x07\n      add\n      0x00\n      swap1\n      sload\n      swap1\n      0x0100\n      exp\n      swap1\n      div\n      0xff\n      and\n      swap1\n      pop\n      dup9\n      jump\t// out\n        /* \"RisqueDeContrepartie.sol\":4121:4508  function calculerRisque(address _portefeuille) public view returns (uint256) {... */\n    tag_35:\n        /* \"RisqueDeContrepartie.sol\":4189:4196  uint256 */\n      0x00\n        /* \"RisqueDeContrepartie.sol\":4209:4230  Contrepartie memory c */\n      dup1\n        /* \"RisqueDeContrepartie.sol\":4233:4246  contreparties */\n      0x00\n        /* \"RisqueDeContrepartie.sol\":4233:4261  contreparties[_portefeuille] */\n      dup1\n        /* \"RisqueDeContrepartie.sol\":4247:4260  _portefeuille */\n      dup5\n        /* \"RisqueDeContrepartie.sol\":4233:4261  contreparties[_portefeuille] */\n      0xffffffffffffffffffffffffffffffffffffffff\n      and\n      0xffffffffffffffffffffffffffffffffffffffff\n      and\n      dup2\n      mstore\n      0x20\n      add\n      swap1\n      dup2\n      mstore\n      0x20\n      add\n      0x00\n      keccak256\n        /* \"RisqueDeContrepartie.sol\":4209:4261  Contrepartie memory c = contreparties[_portefeuille] */\n      mload(0x40)\n      dup1\n      0x0100\n      add\n      0x40\n      mstore\n      swap1\n      dup2\n      0x00\n      dup3\n      add\n      0x00\n      swap1\n      sload\n      swap1\n      0x0100\n      exp\n      swap1\n      div\n      0xffffffffffffffffffffffffffffffffffffffff\n      and\n      0xffffffffffffffffffffffffffffffffffffffff\n      and\n      0xffffffffffffffffffffffffffffffffffffffff\n      and\n      dup2\n      mstore\n      0x20\n      add\n      0x01\n      dup3\n      add\n      sload\n      dup2\n      mstore\n      0x20\n      add\n      0x02\n      dup3\n      add\n      sload\n      dup2\n      mstore\n      0x20\n      add\n      0x03\n      dup3\n      add\n      sload\n      dup2\n      mstore\n      0x20\n      add\n      0x04\n      dup3\n      add\n      sload\n      dup2\n      mstore\n      0x20\n      add\n      0x05\n      dup3\n      add\n      sload\n      dup2\n      mstore\n      0x20\n      add\n      0x06\n      dup3\n      add\n      sload\n      dup2\n      mstore\n      0x20\n      add\n      0x07\n      dup3\n      add\n      0x00\n      swap1\n      sload\n      swap1\n      0x0100\n      exp\n      swap1\n      div\n      0xff\n      and\n      iszero\n      iszero\n      iszero\n      iszero\n      dup2\n      mstore\n      pop\n      pop\n      swap1\n      pop\n        /* \"RisqueDeContrepartie.sol\":4306:4307  0 */\n      0x00\n        /* \"RisqueDeContrepartie.sol\":4280:4308  c.portefeuille != address(0) */\n      0xffffffffffffffffffffffffffffffffffffffff\n      and\n        /* \"RisqueDeContrepartie.sol\":4280:4281  c */\n      dup2\n        /* \"RisqueDeContrepartie.sol\":4280:4294  c.portefeuille */\n      0x00\n      add\n      mload\n        /* \"RisqueDeContrepartie.sol\":4280:4308  c.portefeuille != address(0) */\n      0xffffffffffffffffffffffffffffffffffffffff\n      and\n      sub\n        /* \"RisqueDeContrepartie.sol\":4272:4337  require(c.portefeuille != address(0), \"Contrepartie introuvable\") */\n      tag_80\n      jumpi\n      mload(0x40)\n      0x08c379a000000000000000000000000000000000000000000000000000000000\n      dup2\n      mstore\n      0x04\n      add\n      tag_81\n      swap1\n      tag_44\n      jump\t// in\n    tag_81:\n      mload(0x40)\n      dup1\n      swap2\n      sub\n      swap1\n      revert\n    tag_80:\n        /* \"RisqueDeContrepartie.sol\":4377:4378  0 */\n      0x00\n        /* \"RisqueDeContrepartie.sol\":4356:4357  c */\n      dup2\n        /* \"RisqueDeContrepartie.sol\":4356:4374  c.limiteExposition */\n      0x40\n      add\n      mload\n        /* \"RisqueDeContrepartie.sol\":4356:4378  c.limiteExposition > 0 */\n      gt\n        /* \"RisqueDeContrepartie.sol\":4348:4411  require(c.limiteExposition > 0, \"Limite d'exposition invalide\") */\n      tag_82\n      jumpi\n      mload(0x40)\n      0x08c379a000000000000000000000000000000000000000000000000000000000\n      dup2\n      mstore\n      0x04\n      add\n      tag_83\n      swap1\n      tag_84\n      jump\t// in\n    tag_83:\n      mload(0x40)\n      dup1\n      swap2\n      sub\n      swap1\n      revert\n    tag_82:\n        /* \"RisqueDeContrepartie.sol\":4486:4487  c */\n      dup1\n        /* \"RisqueDeContrepartie.sol\":4486:4499  c.scoreCredit */\n      0x20\n      add\n      mload\n        /* \"RisqueDeContrepartie.sol\":4465:4466  c */\n      dup2\n        /* \"RisqueDeContrepartie.sol\":4465:4483  c.limiteExposition */\n      0x40\n      add\n      mload\n        /* \"RisqueDeContrepartie.sol\":4465:4499  c.limiteExposition * c.scoreCredit */\n      tag_85\n      swap2\n      swap1\n      tag_49\n      jump\t// in\n    tag_85:\n        /* \"RisqueDeContrepartie.sol\":4455:4460  10000 */\n      0x2710\n        /* \"RisqueDeContrepartie.sol\":4432:4433  c */\n      dup3\n        /* \"RisqueDeContrepartie.sol\":4432:4452  c.expositionCourante */\n      0x60\n      add\n      mload\n        /* \"RisqueDeContrepartie.sol\":4432:4460  c.expositionCourante * 10000 */\n      tag_86\n      swap2\n      swap1\n      tag_49\n      jump\t// in\n    tag_86:\n        /* \"RisqueDeContrepartie.sol\":4431:4500  (c.expositionCourante * 10000) / (c.limiteExposition * c.scoreCredit) */\n      tag_87\n      swap2\n      swap1\n      tag_51\n      jump\t// in\n    tag_87:\n        /* \"RisqueDeContrepartie.sol\":4424:4500  return (c.expositionCourante * 10000) / (c.limiteExposition * c.scoreCredit) */\n      swap2\n      pop\n      pop\n        /* \"RisqueDeContrepartie.sol\":4121:4508  function calculerRisque(address _portefeuille) public view returns (uint256) {... */\n      swap2\n      swap1\n      pop\n      jump\t// out\n        /* \"RisqueDeContrepartie.sol\":1006:2001  function ajouterContrepartie(... */\n    tag_40:\n        /* \"RisqueDeContrepartie.sol\":1310:1311  0 */\n      0x00\n        /* \"RisqueDeContrepartie.sol\":1257:1312  contreparties[_portefeuille].portefeuille == address(0) */\n      0xffffffffffffffffffffffffffffffffffffffff\n      and\n        /* \"RisqueDeContrepartie.sol\":1257:1270  contreparties */\n      0x00\n        /* \"RisqueDeContrepartie.sol\":1257:1285  contreparties[_portefeuille] */\n      dup1\n        /* \"RisqueDeContrepartie.sol\":1271:1284  _portefeuille */\n      dup8\n        /* \"RisqueDeContrepartie.sol\":1257:1285  contreparties[_portefeuille] */\n      0xffffffffffffffffffffffffffffffffffffffff\n      and\n      0xffffffffffffffffffffffffffffffffffffffff\n      and\n      dup2\n      mstore\n      0x20\n      add\n      swap1\n      dup2\n      mstore\n      0x20\n      add\n      0x00\n      keccak256\n        /* \"RisqueDeContrepartie.sol\":1257:1298  contreparties[_portefeuille].portefeuille */\n      0x00\n      add\n      0x00\n      swap1\n      sload\n      swap1\n      0x0100\n      exp\n      swap1\n      div\n      0xffffffffffffffffffffffffffffffffffffffff\n      and\n        /* \"RisqueDeContrepartie.sol\":1257:1312  contreparties[_portefeuille].portefeuille == address(0) */\n      0xffffffffffffffffffffffffffffffffffffffff\n      and\n      eq\n        /* \"RisqueDeContrepartie.sol\":1235:1364  require(... */\n      tag_89\n      jumpi\n      mload(0x40)\n      0x08c379a000000000000000000000000000000000000000000000000000000000\n      dup2\n      mstore\n      0x04\n      add\n      tag_90\n      swap1\n      tag_91\n      jump\t// in\n    tag_90:\n      mload(0x40)\n      dup1\n      swap2\n      sub\n      swap1\n      revert\n    tag_89:\n        /* \"RisqueDeContrepartie.sol\":1398:1399  0 */\n      0x00\n        /* \"RisqueDeContrepartie.sol\":1383:1395  _scoreCredit */\n      dup5\n        /* \"RisqueDeContrepartie.sol\":1383:1399  _scoreCredit > 0 */\n      gt\n        /* \"RisqueDeContrepartie.sol\":1375:1437  require(_scoreCredit > 0, \"Score de credit doit etre positif\") */\n      tag_92\n      jumpi\n      mload(0x40)\n      0x08c379a000000000000000000000000000000000000000000000000000000000\n      dup2\n      mstore\n      0x04\n      add\n      tag_93\n      swap1\n      tag_94\n      jump\t// in\n    tag_93:\n      mload(0x40)\n      dup1\n      swap2\n      sub\n      swap1\n      revert\n    tag_92:\n        /* \"RisqueDeContrepartie.sol\":1476:1477  0 */\n      0x00\n        /* \"RisqueDeContrepartie.sol\":1456:1473  _limiteExposition */\n      dup4\n        /* \"RisqueDeContrepartie.sol\":1456:1477  _limiteExposition > 0 */\n      gt\n        /* \"RisqueDeContrepartie.sol\":1448:1520  require(_limiteExposition > 0, \"Limite d'exposition doit etre positive\") */\n      tag_95\n      jumpi\n      mload(0x40)\n      0x08c379a000000000000000000000000000000000000000000000000000000000\n      dup2\n      mstore\n      0x04\n      add\n      tag_96\n      swap1\n      tag_97\n      jump\t// in\n    tag_96:\n      mload(0x40)\n      dup1\n      swap2\n      sub\n      swap1\n      revert\n    tag_95:\n        /* \"RisqueDeContrepartie.sol\":1564:1922  Contrepartie({... */\n      mload(0x40)\n      dup1\n      0x0100\n      add\n      0x40\n      mstore\n      dup1\n        /* \"RisqueDeContrepartie.sol\":1606:1619  _portefeuille */\n      dup7\n        /* \"RisqueDeContrepartie.sol\":1564:1922  Contrepartie({... */\n      0xffffffffffffffffffffffffffffffffffffffff\n      and\n      dup2\n      mstore\n      0x20\n      add\n        /* \"RisqueDeContrepartie.sol\":1647:1659  _scoreCredit */\n      dup6\n        /* \"RisqueDeContrepartie.sol\":1564:1922  Contrepartie({... */\n      dup2\n      mstore\n      0x20\n      add\n        /* \"RisqueDeContrepartie.sol\":1692:1709  _limiteExposition */\n      dup5\n        /* \"RisqueDeContrepartie.sol\":1564:1922  Contrepartie({... */\n      dup2\n      mstore\n      0x20\n      add\n        /* \"RisqueDeContrepartie.sol\":1744:1745  0 */\n      0x00\n        /* \"RisqueDeContrepartie.sol\":1564:1922  Contrepartie({... */\n      dup2\n      mstore\n      0x20\n      add\n        /* \"RisqueDeContrepartie.sol\":1772:1773  0 */\n      0x00\n        /* \"RisqueDeContrepartie.sol\":1564:1922  Contrepartie({... */\n      dup2\n      mstore\n      0x20\n      add\n        /* \"RisqueDeContrepartie.sol\":1807:1825  _probabiliteDefaut */\n      dup4\n        /* \"RisqueDeContrepartie.sol\":1564:1922  Contrepartie({... */\n      dup2\n      mstore\n      0x20\n      add\n        /* \"RisqueDeContrepartie.sol\":1861:1881  _pertesEnCasDeDefaut */\n      dup3\n        /* \"RisqueDeContrepartie.sol\":1564:1922  Contrepartie({... */\n      dup2\n      mstore\n      0x20\n      add\n        /* \"RisqueDeContrepartie.sol\":1906:1910  true */\n      0x01\n        /* \"RisqueDeContrepartie.sol\":1564:1922  Contrepartie({... */\n      iszero\n      iszero\n      dup2\n      mstore\n      pop\n        /* \"RisqueDeContrepartie.sol\":1533:1546  contreparties */\n      0x00\n        /* \"RisqueDeContrepartie.sol\":1533:1561  contreparties[_portefeuille] */\n      dup1\n        /* \"RisqueDeContrepartie.sol\":1547:1560  _portefeuille */\n      dup8\n        /* \"RisqueDeContrepartie.sol\":1533:1561  contreparties[_portefeuille] */\n      0xffffffffffffffffffffffffffffffffffffffff\n      and\n      0xffffffffffffffffffffffffffffffffffffffff\n      and\n      dup2\n      mstore\n      0x20\n      add\n      swap1\n      dup2\n      mstore\n      0x20\n      add\n      0x00\n      keccak256\n        /* \"RisqueDeContrepartie.sol\":1533:1922  contreparties[_portefeuille] = Contrepartie({... */\n      0x00\n      dup3\n      add\n      mload\n      dup2\n      0x00\n      add\n      exp(0x0100, 0x00)\n      dup2\n      sload\n      dup2\n      0xffffffffffffffffffffffffffffffffffffffff\n      mul\n      not\n      and\n      swap1\n      dup4\n      0xffffffffffffffffffffffffffffffffffffffff\n      and\n      mul\n      or\n      swap1\n      sstore\n      pop\n      0x20\n      dup3\n      add\n      mload\n      dup2\n      0x01\n      add\n      sstore\n      0x40\n      dup3\n      add\n      mload\n      dup2\n      0x02\n      add\n      sstore\n      0x60\n      dup3\n      add\n      mload\n      dup2\n      0x03\n      add\n      sstore\n      0x80\n      dup3\n      add\n      mload\n      dup2\n      0x04\n      add\n      sstore\n      0xa0\n      dup3\n      add\n      mload\n      dup2\n      0x05\n      add\n      sstore\n      0xc0\n      dup3\n      add\n      mload\n      dup2\n      0x06\n      add\n      sstore\n      0xe0\n      dup3\n      add\n      mload\n      dup2\n      0x07\n      add\n      exp(0x0100, 0x00)\n      dup2\n      sload\n      dup2\n      0xff\n      mul\n      not\n      and\n      swap1\n      dup4\n      iszero\n      iszero\n      mul\n      or\n      swap1\n      sstore\n      pop\n      swap1\n      pop\n      pop\n        /* \"RisqueDeContrepartie.sol\":1960:1973  _portefeuille */\n      dup5\n        /* \"RisqueDeContrepartie.sol\":1940:1993  ContrepartieAjoutee(_portefeuille, _limiteExposition) */\n      0xffffffffffffffffffffffffffffffffffffffff\n      and\n      0x747a12c5b34abe212a3a26b67b9a8edf3ceb6bd68207c9f6c11a5161432e1614\n        /* \"RisqueDeContrepartie.sol\":1975:1992  _limiteExposition */\n      dup5\n        /* \"RisqueDeContrepartie.sol\":1940:1993  ContrepartieAjoutee(_portefeuille, _limiteExposition) */\n      mload(0x40)\n      tag_98\n      swap2\n      swap1\n      tag_16\n      jump\t// in\n    tag_98:\n      mload(0x40)\n      dup1\n      swap2\n      sub\n      swap1\n      log2\n        /* \"RisqueDeContrepartie.sol\":1006:2001  function ajouterContrepartie(... */\n      pop\n      pop\n      pop\n      pop\n      pop\n      jump\t// out\n        /* \"RisqueDeContrepartie.sol\":3311:4086  function verifierAlertesEtLimites(address _portefeuille) internal {... */\n    tag_63:\n        /* \"RisqueDeContrepartie.sol\":3388:3410  Contrepartie storage c */\n      0x00\n        /* \"RisqueDeContrepartie.sol\":3413:3426  contreparties */\n      dup1\n        /* \"RisqueDeContrepartie.sol\":3413:3441  contreparties[_portefeuille] */\n      0x00\n        /* \"RisqueDeContrepartie.sol\":3427:3440  _portefeuille */\n      dup4\n        /* \"RisqueDeContrepartie.sol\":3413:3441  contreparties[_portefeuille] */\n      0xffffffffffffffffffffffffffffffffffffffff\n      and\n      0xffffffffffffffffffffffffffffffffffffffff\n      and\n      dup2\n      mstore\n      0x20\n      add\n      swap1\n      dup2\n      mstore\n      0x20\n      add\n      0x00\n      keccak256\n        /* \"RisqueDeContrepartie.sol\":3388:3441  Contrepartie storage c = contreparties[_portefeuille] */\n      swap1\n      pop\n        /* \"RisqueDeContrepartie.sol\":3452:3475  uint256 ratioCouverture */\n      0x00\n        /* \"RisqueDeContrepartie.sol\":3509:3510  c */\n      dup2\n        /* \"RisqueDeContrepartie.sol\":3509:3527  c.limiteExposition */\n      0x02\n      add\n      sload\n        /* \"RisqueDeContrepartie.sol\":3502:3505  100 */\n      0x64\n        /* \"RisqueDeContrepartie.sol\":3479:3480  c */\n      dup4\n        /* \"RisqueDeContrepartie.sol\":3479:3499  c.expositionCourante */\n      0x03\n      add\n      sload\n        /* \"RisqueDeContrepartie.sol\":3479:3505  c.expositionCourante * 100 */\n      tag_100\n      swap2\n      swap1\n      tag_49\n      jump\t// in\n    tag_100:\n        /* \"RisqueDeContrepartie.sol\":3478:3527  (c.expositionCourante * 100) / c.limiteExposition */\n      tag_101\n      swap2\n      swap1\n      tag_51\n      jump\t// in\n    tag_101:\n        /* \"RisqueDeContrepartie.sol\":3452:3527  uint256 ratioCouverture = (c.expositionCourante * 100) / c.limiteExposition */\n      swap1\n      pop\n        /* \"RisqueDeContrepartie.sol\":3567:3568  c */\n      dup2\n        /* \"RisqueDeContrepartie.sol\":3567:3585  c.limiteExposition */\n      0x02\n      add\n      sload\n        /* \"RisqueDeContrepartie.sol\":3544:3545  c */\n      dup3\n        /* \"RisqueDeContrepartie.sol\":3544:3564  c.expositionCourante */\n      0x03\n      add\n      sload\n        /* \"RisqueDeContrepartie.sol\":3544:3585  c.expositionCourante > c.limiteExposition */\n      gt\n        /* \"RisqueDeContrepartie.sol\":3540:3756  if (c.expositionCourante > c.limiteExposition) {... */\n      iszero\n      tag_102\n      jumpi\n        /* \"RisqueDeContrepartie.sol\":3615:3620  false */\n      0x00\n        /* \"RisqueDeContrepartie.sol\":3602:3603  c */\n      dup3\n        /* \"RisqueDeContrepartie.sol\":3602:3612  c.estActif */\n      0x07\n      add\n      0x00\n        /* \"RisqueDeContrepartie.sol\":3602:3620  c.estActif = false */\n      0x0100\n      exp\n      dup2\n      sload\n      dup2\n      0xff\n      mul\n      not\n      and\n      swap1\n      dup4\n      iszero\n      iszero\n      mul\n      or\n      swap1\n      sstore\n      pop\n        /* \"RisqueDeContrepartie.sol\":3655:3668  _portefeuille */\n      dup3\n        /* \"RisqueDeContrepartie.sol\":3640:3691  LimiteDepassee(_portefeuille, c.expositionCourante) */\n      0xffffffffffffffffffffffffffffffffffffffff\n      and\n      0x74b737e83b985a0afa446389d70cccab99d200a0a63101114130a2a2dfbba912\n        /* \"RisqueDeContrepartie.sol\":3670:3671  c */\n      dup4\n        /* \"RisqueDeContrepartie.sol\":3670:3690  c.expositionCourante */\n      0x03\n      add\n      sload\n        /* \"RisqueDeContrepartie.sol\":3640:3691  LimiteDepassee(_portefeuille, c.expositionCourante) */\n      mload(0x40)\n      tag_103\n      swap2\n      swap1\n      tag_16\n      jump\t// in\n    tag_103:\n      mload(0x40)\n      dup1\n      swap2\n      sub\n      swap1\n      log2\n        /* \"RisqueDeContrepartie.sol\":3730:3743  _portefeuille */\n      dup3\n        /* \"RisqueDeContrepartie.sol\":3711:3744  ContrepartieFrozee(_portefeuille) */\n      0xffffffffffffffffffffffffffffffffffffffff\n      and\n      0x9828dcbaa179fb6df1860c283b0038a99295505d3c63dab7e0f85ddae424e2f9\n      mload(0x40)\n      mload(0x40)\n      dup1\n      swap2\n      sub\n      swap1\n      log2\n        /* \"RisqueDeContrepartie.sol\":3540:3756  if (c.expositionCourante > c.limiteExposition) {... */\n    tag_102:\n        /* \"RisqueDeContrepartie.sol\":3790:3793  100 */\n      0x64\n        /* \"RisqueDeContrepartie.sol\":3772:3787  ratioCouverture */\n      dup2\n        /* \"RisqueDeContrepartie.sol\":3772:3793  ratioCouverture > 100 */\n      gt\n        /* \"RisqueDeContrepartie.sol\":3768:3900  if (ratioCouverture > 100) {... */\n      iszero\n      tag_104\n      jumpi\n        /* \"RisqueDeContrepartie.sol\":3828:3841  _portefeuille */\n      dup3\n        /* \"RisqueDeContrepartie.sol\":3815:3888  AlerteRisque(_portefeuille, \"Ratio de couverture eleve\", ratioCouverture) */\n      0xffffffffffffffffffffffffffffffffffffffff\n      and\n      0x6d9eca91a729a6cf57975885a463ac2503159b33bea61598036f7a607f497863\n        /* \"RisqueDeContrepartie.sol\":3872:3887  ratioCouverture */\n      dup3\n        /* \"RisqueDeContrepartie.sol\":3815:3888  AlerteRisque(_portefeuille, \"Ratio de couverture eleve\", ratioCouverture) */\n      mload(0x40)\n      tag_105\n      swap2\n      swap1\n      tag_106\n      jump\t// in\n    tag_105:\n      mload(0x40)\n      dup1\n      swap2\n      sub\n      swap1\n      log2\n        /* \"RisqueDeContrepartie.sol\":3768:3900  if (ratioCouverture > 100) {... */\n    tag_104:\n        /* \"RisqueDeContrepartie.sol\":3912:3926  uint256 risque */\n      0x00\n        /* \"RisqueDeContrepartie.sol\":3929:3958  calculerRisque(_portefeuille) */\n      tag_107\n        /* \"RisqueDeContrepartie.sol\":3944:3957  _portefeuille */\n      dup5\n        /* \"RisqueDeContrepartie.sol\":3929:3943  calculerRisque */\n      tag_35\n        /* \"RisqueDeContrepartie.sol\":3929:3958  calculerRisque(_portefeuille) */\n      jump\t// in\n    tag_107:\n        /* \"RisqueDeContrepartie.sol\":3912:3958  uint256 risque = calculerRisque(_portefeuille) */\n      swap1\n      pop\n        /* \"RisqueDeContrepartie.sol\":3982:3985  100 */\n      0x64\n        /* \"RisqueDeContrepartie.sol\":3973:3979  risque */\n      dup2\n        /* \"RisqueDeContrepartie.sol\":3973:3985  risque > 100 */\n      gt\n        /* \"RisqueDeContrepartie.sol\":3969:4079  if (risque > 100) {... */\n      iszero\n      tag_108\n      jumpi\n        /* \"RisqueDeContrepartie.sol\":4020:4033  _portefeuille */\n      dup4\n        /* \"RisqueDeContrepartie.sol\":4007:4067  AlerteRisque(_portefeuille, \"Score de risque eleve\", risque) */\n      0xffffffffffffffffffffffffffffffffffffffff\n      and\n      0x6d9eca91a729a6cf57975885a463ac2503159b33bea61598036f7a607f497863\n        /* \"RisqueDeContrepartie.sol\":4060:4066  risque */\n      dup3\n        /* \"RisqueDeContrepartie.sol\":4007:4067  AlerteRisque(_portefeuille, \"Score de risque eleve\", risque) */\n      mload(0x40)\n      tag_109\n      swap2\n      swap1\n      tag_110\n      jump\t// in\n    tag_109:\n      mload(0x40)\n      dup1\n      swap2\n      sub\n      swap1\n      log2\n        /* \"RisqueDeContrepartie.sol\":3969:4079  if (risque > 100) {... */\n    tag_108:\n        /* \"RisqueDeContrepartie.sol\":3377:4086  {... */\n      pop\n      pop\n      pop\n        /* \"RisqueDeContrepartie.sol\":3311:4086  function verifierAlertesEtLimites(address _portefeuille) internal {... */\n      pop\n      jump\t// out\n        /* \"#utility.yul\":88:205   */\n    tag_112:\n        /* \"#utility.yul\":197:198   */\n      0x00\n        /* \"#utility.yul\":194:195   */\n      dup1\n        /* \"#utility.yul\":187:199   */\n      revert\n        /* \"#utility.yul\":334:460   */\n    tag_114:\n        /* \"#utility.yul\":371:378   */\n      0x00\n        /* \"#utility.yul\":411:453   */\n      0xffffffffffffffffffffffffffffffffffffffff\n        /* \"#utility.yul\":404:409   */\n      dup3\n        /* \"#utility.yul\":400:454   */\n      and\n        /* \"#utility.yul\":389:454   */\n      swap1\n      pop\n        /* \"#utility.yul\":334:460   */\n      swap2\n      swap1\n      pop\n      jump\t// out\n        /* \"#utility.yul\":466:562   */\n    tag_115:\n        /* \"#utility.yul\":503:510   */\n      0x00\n        /* \"#utility.yul\":532:556   */\n      tag_158\n        /* \"#utility.yul\":550:555   */\n      dup3\n        /* \"#utility.yul\":532:556   */\n      tag_114\n      jump\t// in\n    tag_158:\n        /* \"#utility.yul\":521:556   */\n      swap1\n      pop\n        /* \"#utility.yul\":466:562   */\n      swap2\n      swap1\n      pop\n      jump\t// out\n        /* \"#utility.yul\":568:690   */\n    tag_116:\n        /* \"#utility.yul\":641:665   */\n      tag_160\n        /* \"#utility.yul\":659:664   */\n      dup2\n        /* \"#utility.yul\":641:665   */\n      tag_115\n      jump\t// in\n    tag_160:\n        /* \"#utility.yul\":634:639   */\n      dup2\n        /* \"#utility.yul\":631:666   */\n      eq\n        /* \"#utility.yul\":621:684   */\n      tag_161\n      jumpi\n        /* \"#utility.yul\":680:681   */\n      0x00\n        /* \"#utility.yul\":677:678   */\n      dup1\n        /* \"#utility.yul\":670:682   */\n      revert\n        /* \"#utility.yul\":621:684   */\n    tag_161:\n        /* \"#utility.yul\":568:690   */\n      pop\n      jump\t// out\n        /* \"#utility.yul\":696:835   */\n    tag_117:\n        /* \"#utility.yul\":742:747   */\n      0x00\n        /* \"#utility.yul\":780:786   */\n      dup2\n        /* \"#utility.yul\":767:787   */\n      calldataload\n        /* \"#utility.yul\":758:787   */\n      swap1\n      pop\n        /* \"#utility.yul\":796:829   */\n      tag_163\n        /* \"#utility.yul\":823:828   */\n      dup2\n        /* \"#utility.yul\":796:829   */\n      tag_116\n      jump\t// in\n    tag_163:\n        /* \"#utility.yul\":696:835   */\n      swap3\n      swap2\n      pop\n      pop\n      jump\t// out\n        /* \"#utility.yul\":841:1170   */\n    tag_13:\n        /* \"#utility.yul\":900:906   */\n      0x00\n        /* \"#utility.yul\":949:951   */\n      0x20\n        /* \"#utility.yul\":937:946   */\n      dup3\n        /* \"#utility.yul\":928:935   */\n      dup5\n        /* \"#utility.yul\":924:947   */\n      sub\n        /* \"#utility.yul\":920:952   */\n      slt\n        /* \"#utility.yul\":917:1036   */\n      iszero\n      tag_165\n      jumpi\n        /* \"#utility.yul\":955:1034   */\n      tag_166\n      tag_112\n      jump\t// in\n    tag_166:\n        /* \"#utility.yul\":917:1036   */\n    tag_165:\n        /* \"#utility.yul\":1075:1076   */\n      0x00\n        /* \"#utility.yul\":1100:1153   */\n      tag_167\n        /* \"#utility.yul\":1145:1152   */\n      dup5\n        /* \"#utility.yul\":1136:1142   */\n      dup3\n        /* \"#utility.yul\":1125:1134   */\n      dup6\n        /* \"#utility.yul\":1121:1143   */\n      add\n        /* \"#utility.yul\":1100:1153   */\n      tag_117\n      jump\t// in\n    tag_167:\n        /* \"#utility.yul\":1090:1153   */\n      swap2\n      pop\n        /* \"#utility.yul\":1046:1163   */\n      pop\n        /* \"#utility.yul\":841:1170   */\n      swap3\n      swap2\n      pop\n      pop\n      jump\t// out\n        /* \"#utility.yul\":1176:1253   */\n    tag_118:\n        /* \"#utility.yul\":1213:1220   */\n      0x00\n        /* \"#utility.yul\":1242:1247   */\n      dup2\n        /* \"#utility.yul\":1231:1247   */\n      swap1\n      pop\n        /* \"#utility.yul\":1176:1253   */\n      swap2\n      swap1\n      pop\n      jump\t// out\n        /* \"#utility.yul\":1259:1377   */\n    tag_119:\n        /* \"#utility.yul\":1346:1370   */\n      tag_170\n        /* \"#utility.yul\":1364:1369   */\n      dup2\n        /* \"#utility.yul\":1346:1370   */\n      tag_118\n      jump\t// in\n    tag_170:\n        /* \"#utility.yul\":1341:1344   */\n      dup3\n        /* \"#utility.yul\":1334:1371   */\n      mstore\n        /* \"#utility.yul\":1259:1377   */\n      pop\n      pop\n      jump\t// out\n        /* \"#utility.yul\":1383:1605   */\n    tag_16:\n        /* \"#utility.yul\":1476:1480   */\n      0x00\n        /* \"#utility.yul\":1514:1516   */\n      0x20\n        /* \"#utility.yul\":1503:1512   */\n      dup3\n        /* \"#utility.yul\":1499:1517   */\n      add\n        /* \"#utility.yul\":1491:1517   */\n      swap1\n      pop\n        /* \"#utility.yul\":1527:1598   */\n      tag_172\n        /* \"#utility.yul\":1595:1596   */\n      0x00\n        /* \"#utility.yul\":1584:1593   */\n      dup4\n        /* \"#utility.yul\":1580:1597   */\n      add\n        /* \"#utility.yul\":1571:1577   */\n      dup5\n        /* \"#utility.yul\":1527:1598   */\n      tag_119\n      jump\t// in\n    tag_172:\n        /* \"#utility.yul\":1383:1605   */\n      swap3\n      swap2\n      pop\n      pop\n      jump\t// out\n        /* \"#utility.yul\":1611:1733   */\n    tag_120:\n        /* \"#utility.yul\":1684:1708   */\n      tag_174\n        /* \"#utility.yul\":1702:1707   */\n      dup2\n        /* \"#utility.yul\":1684:1708   */\n      tag_118\n      jump\t// in\n    tag_174:\n        /* \"#utility.yul\":1677:1682   */\n      dup2\n        /* \"#utility.yul\":1674:1709   */\n      eq\n        /* \"#utility.yul\":1664:1727   */\n      tag_175\n      jumpi\n        /* \"#utility.yul\":1723:1724   */\n      0x00\n        /* \"#utility.yul\":1720:1721   */\n      dup1\n        /* \"#utility.yul\":1713:1725   */\n      revert\n        /* \"#utility.yul\":1664:1727   */\n    tag_175:\n        /* \"#utility.yul\":1611:1733   */\n      pop\n      jump\t// out\n        /* \"#utility.yul\":1739:1878   */\n    tag_121:\n        /* \"#utility.yul\":1785:1790   */\n      0x00\n        /* \"#utility.yul\":1823:1829   */\n      dup2\n        /* \"#utility.yul\":1810:1830   */\n      calldataload\n        /* \"#utility.yul\":1801:1830   */\n      swap1\n      pop\n        /* \"#utility.yul\":1839:1872   */\n      tag_177\n        /* \"#utility.yul\":1866:1871   */\n      dup2\n        /* \"#utility.yul\":1839:1872   */\n      tag_120\n      jump\t// in\n    tag_177:\n        /* \"#utility.yul\":1739:1878   */\n      swap3\n      swap2\n      pop\n      pop\n      jump\t// out\n        /* \"#utility.yul\":1884:2358   */\n    tag_19:\n        /* \"#utility.yul\":1952:1958   */\n      0x00\n        /* \"#utility.yul\":1960:1966   */\n      dup1\n        /* \"#utility.yul\":2009:2011   */\n      0x40\n        /* \"#utility.yul\":1997:2006   */\n      dup4\n        /* \"#utility.yul\":1988:1995   */\n      dup6\n        /* \"#utility.yul\":1984:2007   */\n      sub\n        /* \"#utility.yul\":1980:2012   */\n      slt\n        /* \"#utility.yul\":1977:2096   */\n      iszero\n      tag_179\n      jumpi\n        /* \"#utility.yul\":2015:2094   */\n      tag_180\n      tag_112\n      jump\t// in\n    tag_180:\n        /* \"#utility.yul\":1977:2096   */\n    tag_179:\n        /* \"#utility.yul\":2135:2136   */\n      0x00\n        /* \"#utility.yul\":2160:2213   */\n      tag_181\n        /* \"#utility.yul\":2205:2212   */\n      dup6\n        /* \"#utility.yul\":2196:2202   */\n      dup3\n        /* \"#utility.yul\":2185:2194   */\n      dup7\n        /* \"#utility.yul\":2181:2203   */\n      add\n        /* \"#utility.yul\":2160:2213   */\n      tag_117\n      jump\t// in\n    tag_181:\n        /* \"#utility.yul\":2150:2213   */\n      swap3\n      pop\n        /* \"#utility.yul\":2106:2223   */\n      pop\n        /* \"#utility.yul\":2262:2264   */\n      0x20\n        /* \"#utility.yul\":2288:2341   */\n      tag_182\n        /* \"#utility.yul\":2333:2340   */\n      dup6\n        /* \"#utility.yul\":2324:2330   */\n      dup3\n        /* \"#utility.yul\":2313:2322   */\n      dup7\n        /* \"#utility.yul\":2309:2331   */\n      add\n        /* \"#utility.yul\":2288:2341   */\n      tag_121\n      jump\t// in\n    tag_182:\n        /* \"#utility.yul\":2278:2341   */\n      swap2\n      pop\n        /* \"#utility.yul\":2233:2351   */\n      pop\n        /* \"#utility.yul\":1884:2358   */\n      swap3\n      pop\n      swap3\n      swap1\n      pop\n      jump\t// out\n        /* \"#utility.yul\":2364:2482   */\n    tag_122:\n        /* \"#utility.yul\":2451:2475   */\n      tag_184\n        /* \"#utility.yul\":2469:2474   */\n      dup2\n        /* \"#utility.yul\":2451:2475   */\n      tag_115\n      jump\t// in\n    tag_184:\n        /* \"#utility.yul\":2446:2449   */\n      dup3\n        /* \"#utility.yul\":2439:2476   */\n      mstore\n        /* \"#utility.yul\":2364:2482   */\n      pop\n      pop\n      jump\t// out\n        /* \"#utility.yul\":2488:2578   */\n    tag_123:\n        /* \"#utility.yul\":2522:2529   */\n      0x00\n        /* \"#utility.yul\":2565:2570   */\n      dup2\n        /* \"#utility.yul\":2558:2571   */\n      iszero\n        /* \"#utility.yul\":2551:2572   */\n      iszero\n        /* \"#utility.yul\":2540:2572   */\n      swap1\n      pop\n        /* \"#utility.yul\":2488:2578   */\n      swap2\n      swap1\n      pop\n      jump\t// out\n        /* \"#utility.yul\":2584:2693   */\n    tag_124:\n        /* \"#utility.yul\":2665:2686   */\n      tag_187\n        /* \"#utility.yul\":2680:2685   */\n      dup2\n        /* \"#utility.yul\":2665:2686   */\n      tag_123\n      jump\t// in\n    tag_187:\n        /* \"#utility.yul\":2660:2663   */\n      dup3\n        /* \"#utility.yul\":2653:2687   */\n      mstore\n        /* \"#utility.yul\":2584:2693   */\n      pop\n      pop\n      jump\t// out\n        /* \"#utility.yul\":2699:3684   */\n    tag_32:\n        /* \"#utility.yul\":2982:2986   */\n      0x00\n        /* \"#utility.yul\":3020:3023   */\n      0x0100\n        /* \"#utility.yul\":3009:3018   */\n      dup3\n        /* \"#utility.yul\":3005:3024   */\n      add\n        /* \"#utility.yul\":2997:3024   */\n      swap1\n      pop\n        /* \"#utility.yul\":3034:3105   */\n      tag_189\n        /* \"#utility.yul\":3102:3103   */\n      0x00\n        /* \"#utility.yul\":3091:3100   */\n      dup4\n        /* \"#utility.yul\":3087:3104   */\n      add\n        /* \"#utility.yul\":3078:3084   */\n      dup12\n        /* \"#utility.yul\":3034:3105   */\n      tag_122\n      jump\t// in\n    tag_189:\n        /* \"#utility.yul\":3115:3187   */\n      tag_190\n        /* \"#utility.yul\":3183:3185   */\n      0x20\n        /* \"#utility.yul\":3172:3181   */\n      dup4\n        /* \"#utility.yul\":3168:3186   */\n      add\n        /* \"#utility.yul\":3159:3165   */\n      dup11\n        /* \"#utility.yul\":3115:3187   */\n      tag_119\n      jump\t// in\n    tag_190:\n        /* \"#utility.yul\":3197:3269   */\n      tag_191\n        /* \"#utility.yul\":3265:3267   */\n      0x40\n        /* \"#utility.yul\":3254:3263   */\n      dup4\n        /* \"#utility.yul\":3250:3268   */\n      add\n        /* \"#utility.yul\":3241:3247   */\n      dup10\n        /* \"#utility.yul\":3197:3269   */\n      tag_119\n      jump\t// in\n    tag_191:\n        /* \"#utility.yul\":3279:3351   */\n      tag_192\n        /* \"#utility.yul\":3347:3349   */\n      0x60\n        /* \"#utility.yul\":3336:3345   */\n      dup4\n        /* \"#utility.yul\":3332:3350   */\n      add\n        /* \"#utility.yul\":3323:3329   */\n      dup9\n        /* \"#utility.yul\":3279:3351   */\n      tag_119\n      jump\t// in\n    tag_192:\n        /* \"#utility.yul\":3361:3434   */\n      tag_193\n        /* \"#utility.yul\":3429:3432   */\n      0x80\n        /* \"#utility.yul\":3418:3427   */\n      dup4\n        /* \"#utility.yul\":3414:3433   */\n      add\n        /* \"#utility.yul\":3405:3411   */\n      dup8\n        /* \"#utility.yul\":3361:3434   */\n      tag_119\n      jump\t// in\n    tag_193:\n        /* \"#utility.yul\":3444:3517   */\n      tag_194\n        /* \"#utility.yul\":3512:3515   */\n      0xa0\n        /* \"#utility.yul\":3501:3510   */\n      dup4\n        /* \"#utility.yul\":3497:3516   */\n      add\n        /* \"#utility.yul\":3488:3494   */\n      dup7\n        /* \"#utility.yul\":3444:3517   */\n      tag_119\n      jump\t// in\n    tag_194:\n        /* \"#utility.yul\":3527:3600   */\n      tag_195\n        /* \"#utility.yul\":3595:3598   */\n      0xc0\n        /* \"#utility.yul\":3584:3593   */\n      dup4\n        /* \"#utility.yul\":3580:3599   */\n      add\n        /* \"#utility.yul\":3571:3577   */\n      dup6\n        /* \"#utility.yul\":3527:3600   */\n      tag_119\n      jump\t// in\n    tag_195:\n        /* \"#utility.yul\":3610:3677   */\n      tag_196\n        /* \"#utility.yul\":3672:3675   */\n      0xe0\n        /* \"#utility.yul\":3661:3670   */\n      dup4\n        /* \"#utility.yul\":3657:3676   */\n      add\n        /* \"#utility.yul\":3648:3654   */\n      dup5\n        /* \"#utility.yul\":3610:3677   */\n      tag_124\n      jump\t// in\n    tag_196:\n        /* \"#utility.yul\":2699:3684   */\n      swap10\n      swap9\n      pop\n      pop\n      pop\n      pop\n      pop\n      pop\n      pop\n      pop\n      pop\n      jump\t// out\n        /* \"#utility.yul\":3690:4601   */\n    tag_39:\n        /* \"#utility.yul\":3785:3791   */\n      0x00\n        /* \"#utility.yul\":3793:3799   */\n      dup1\n        /* \"#utility.yul\":3801:3807   */\n      0x00\n        /* \"#utility.yul\":3809:3815   */\n      dup1\n        /* \"#utility.yul\":3817:3823   */\n      0x00\n        /* \"#utility.yul\":3866:3869   */\n      0xa0\n        /* \"#utility.yul\":3854:3863   */\n      dup7\n        /* \"#utility.yul\":3845:3852   */\n      dup9\n        /* \"#utility.yul\":3841:3864   */\n      sub\n        /* \"#utility.yul\":3837:3870   */\n      slt\n        /* \"#utility.yul\":3834:3954   */\n      iszero\n      tag_198\n      jumpi\n        /* \"#utility.yul\":3873:3952   */\n      tag_199\n      tag_112\n      jump\t// in\n    tag_199:\n        /* \"#utility.yul\":3834:3954   */\n    tag_198:\n        /* \"#utility.yul\":3993:3994   */\n      0x00\n        /* \"#utility.yul\":4018:4071   */\n      tag_200\n        /* \"#utility.yul\":4063:4070   */\n      dup9\n        /* \"#utility.yul\":4054:4060   */\n      dup3\n        /* \"#utility.yul\":4043:4052   */\n      dup10\n        /* \"#utility.yul\":4039:4061   */\n      add\n        /* \"#utility.yul\":4018:4071   */\n      tag_117\n      jump\t// in\n    tag_200:\n        /* \"#utility.yul\":4008:4071   */\n      swap6\n      pop\n        /* \"#utility.yul\":3964:4081   */\n      pop\n        /* \"#utility.yul\":4120:4122   */\n      0x20\n        /* \"#utility.yul\":4146:4199   */\n      tag_201\n        /* \"#utility.yul\":4191:4198   */\n      dup9\n        /* \"#utility.yul\":4182:4188   */\n      dup3\n        /* \"#utility.yul\":4171:4180   */\n      dup10\n        /* \"#utility.yul\":4167:4189   */\n      add\n        /* \"#utility.yul\":4146:4199   */\n      tag_121\n      jump\t// in\n    tag_201:\n        /* \"#utility.yul\":4136:4199   */\n      swap5\n      pop\n        /* \"#utility.yul\":4091:4209   */\n      pop\n        /* \"#utility.yul\":4248:4250   */\n      0x40\n        /* \"#utility.yul\":4274:4327   */\n      tag_202\n        /* \"#utility.yul\":4319:4326   */\n      dup9\n        /* \"#utility.yul\":4310:4316   */\n      dup3\n        /* \"#utility.yul\":4299:4308   */\n      dup10\n        /* \"#utility.yul\":4295:4317   */\n      add\n        /* \"#utility.yul\":4274:4327   */\n      tag_121\n      jump\t// in\n    tag_202:\n        /* \"#utility.yul\":4264:4327   */\n      swap4\n      pop\n        /* \"#utility.yul\":4219:4337   */\n      pop\n        /* \"#utility.yul\":4376:4378   */\n      0x60\n        /* \"#utility.yul\":4402:4455   */\n      tag_203\n        /* \"#utility.yul\":4447:4454   */\n      dup9\n        /* \"#utility.yul\":4438:4444   */\n      dup3\n        /* \"#utility.yul\":4427:4436   */\n      dup10\n        /* \"#utility.yul\":4423:4445   */\n      add\n        /* \"#utility.yul\":4402:4455   */\n      tag_121\n      jump\t// in\n    tag_203:\n        /* \"#utility.yul\":4392:4455   */\n      swap3\n      pop\n        /* \"#utility.yul\":4347:4465   */\n      pop\n        /* \"#utility.yul\":4504:4507   */\n      0x80\n        /* \"#utility.yul\":4531:4584   */\n      tag_204\n        /* \"#utility.yul\":4576:4583   */\n      dup9\n        /* \"#utility.yul\":4567:4573   */\n      dup3\n        /* \"#utility.yul\":4556:4565   */\n      dup10\n        /* \"#utility.yul\":4552:4574   */\n      add\n        /* \"#utility.yul\":4531:4584   */\n      tag_121\n      jump\t// in\n    tag_204:\n        /* \"#utility.yul\":4521:4584   */\n      swap2\n      pop\n        /* \"#utility.yul\":4475:4594   */\n      pop\n        /* \"#utility.yul\":3690:4601   */\n      swap3\n      swap6\n      pop\n      swap3\n      swap6\n      swap1\n      swap4\n      pop\n      jump\t// out\n        /* \"#utility.yul\":4607:4776   */\n    tag_125:\n        /* \"#utility.yul\":4691:4702   */\n      0x00\n        /* \"#utility.yul\":4725:4731   */\n      dup3\n        /* \"#utility.yul\":4720:4723   */\n      dup3\n        /* \"#utility.yul\":4713:4732   */\n      mstore\n        /* \"#utility.yul\":4765:4769   */\n      0x20\n        /* \"#utility.yul\":4760:4763   */\n      dup3\n        /* \"#utility.yul\":4756:4770   */\n      add\n        /* \"#utility.yul\":4741:4770   */\n      swap1\n      pop\n        /* \"#utility.yul\":4607:4776   */\n      swap3\n      swap2\n      pop\n      pop\n      jump\t// out\n        /* \"#utility.yul\":4782:4956   */\n    tag_126:\n        /* \"#utility.yul\":4922:4948   */\n      0x436f6e74726570617274696520696e74726f757661626c650000000000000000\n        /* \"#utility.yul\":4918:4919   */\n      0x00\n        /* \"#utility.yul\":4910:4916   */\n      dup3\n        /* \"#utility.yul\":4906:4920   */\n      add\n        /* \"#utility.yul\":4899:4949   */\n      mstore\n        /* \"#utility.yul\":4782:4956   */\n      pop\n      jump\t// out\n        /* \"#utility.yul\":4962:5328   */\n    tag_127:\n        /* \"#utility.yul\":5104:5107   */\n      0x00\n        /* \"#utility.yul\":5125:5192   */\n      tag_208\n        /* \"#utility.yul\":5189:5191   */\n      0x18\n        /* \"#utility.yul\":5184:5187   */\n      dup4\n        /* \"#utility.yul\":5125:5192   */\n      tag_125\n      jump\t// in\n    tag_208:\n        /* \"#utility.yul\":5118:5192   */\n      swap2\n      pop\n        /* \"#utility.yul\":5201:5294   */\n      tag_209\n        /* \"#utility.yul\":5290:5293   */\n      dup3\n        /* \"#utility.yul\":5201:5294   */\n      tag_126\n      jump\t// in\n    tag_209:\n        /* \"#utility.yul\":5319:5321   */\n      0x20\n        /* \"#utility.yul\":5314:5317   */\n      dup3\n        /* \"#utility.yul\":5310:5322   */\n      add\n        /* \"#utility.yul\":5303:5322   */\n      swap1\n      pop\n        /* \"#utility.yul\":4962:5328   */\n      swap2\n      swap1\n      pop\n      jump\t// out\n        /* \"#utility.yul\":5334:5753   */\n    tag_44:\n        /* \"#utility.yul\":5500:5504   */\n      0x00\n        /* \"#utility.yul\":5538:5540   */\n      0x20\n        /* \"#utility.yul\":5527:5536   */\n      dup3\n        /* \"#utility.yul\":5523:5541   */\n      add\n        /* \"#utility.yul\":5515:5541   */\n      swap1\n      pop\n        /* \"#utility.yul\":5587:5596   */\n      dup2\n        /* \"#utility.yul\":5581:5585   */\n      dup2\n        /* \"#utility.yul\":5577:5597   */\n      sub\n        /* \"#utility.yul\":5573:5574   */\n      0x00\n        /* \"#utility.yul\":5562:5571   */\n      dup4\n        /* \"#utility.yul\":5558:5575   */\n      add\n        /* \"#utility.yul\":5551:5598   */\n      mstore\n        /* \"#utility.yul\":5615:5746   */\n      tag_211\n        /* \"#utility.yul\":5741:5745   */\n      dup2\n        /* \"#utility.yul\":5615:5746   */\n      tag_127\n      jump\t// in\n    tag_211:\n        /* \"#utility.yul\":5607:5746   */\n      swap1\n      pop\n        /* \"#utility.yul\":5334:5753   */\n      swap2\n      swap1\n      pop\n      jump\t// out\n        /* \"#utility.yul\":5759:5990   */\n    tag_128:\n        /* \"#utility.yul\":5899:5933   */\n      0x4578706f736974696f6e20636f7572616e746520646f69742065747265207375\n        /* \"#utility.yul\":5895:5896   */\n      0x00\n        /* \"#utility.yul\":5887:5893   */\n      dup3\n        /* \"#utility.yul\":5883:5897   */\n      add\n        /* \"#utility.yul\":5876:5934   */\n      mstore\n        /* \"#utility.yul\":5968:5982   */\n      0x7065726965757265206120300000000000000000000000000000000000000000\n        /* \"#utility.yul\":5963:5965   */\n      0x20\n        /* \"#utility.yul\":5955:5961   */\n      dup3\n        /* \"#utility.yul\":5951:5966   */\n      add\n        /* \"#utility.yul\":5944:5983   */\n      mstore\n        /* \"#utility.yul\":5759:5990   */\n      pop\n      jump\t// out\n        /* \"#utility.yul\":5996:6362   */\n    tag_129:\n        /* \"#utility.yul\":6138:6141   */\n      0x00\n        /* \"#utility.yul\":6159:6226   */\n      tag_214\n        /* \"#utility.yul\":6223:6225   */\n      0x2c\n        /* \"#utility.yul\":6218:6221   */\n      dup4\n        /* \"#utility.yul\":6159:6226   */\n      tag_125\n      jump\t// in\n    tag_214:\n        /* \"#utility.yul\":6152:6226   */\n      swap2\n      pop\n        /* \"#utility.yul\":6235:6328   */\n      tag_215\n        /* \"#utility.yul\":6324:6327   */\n      dup3\n        /* \"#utility.yul\":6235:6328   */\n      tag_128\n      jump\t// in\n    tag_215:\n        /* \"#utility.yul\":6353:6355   */\n      0x40\n        /* \"#utility.yul\":6348:6351   */\n      dup3\n        /* \"#utility.yul\":6344:6356   */\n      add\n        /* \"#utility.yul\":6337:6356   */\n      swap1\n      pop\n        /* \"#utility.yul\":5996:6362   */\n      swap2\n      swap1\n      pop\n      jump\t// out\n        /* \"#utility.yul\":6368:6787   */\n    tag_47:\n        /* \"#utility.yul\":6534:6538   */\n      0x00\n        /* \"#utility.yul\":6572:6574   */\n      0x20\n        /* \"#utility.yul\":6561:6570   */\n      dup3\n        /* \"#utility.yul\":6557:6575   */\n      add\n        /* \"#utility.yul\":6549:6575   */\n      swap1\n      pop\n        /* \"#utility.yul\":6621:6630   */\n      dup2\n        /* \"#utility.yul\":6615:6619   */\n      dup2\n        /* \"#utility.yul\":6611:6631   */\n      sub\n        /* \"#utility.yul\":6607:6608   */\n      0x00\n        /* \"#utility.yul\":6596:6605   */\n      dup4\n        /* \"#utility.yul\":6592:6609   */\n      add\n        /* \"#utility.yul\":6585:6632   */\n      mstore\n        /* \"#utility.yul\":6649:6780   */\n      tag_217\n        /* \"#utility.yul\":6775:6779   */\n      dup2\n        /* \"#utility.yul\":6649:6780   */\n      tag_129\n      jump\t// in\n    tag_217:\n        /* \"#utility.yul\":6641:6780   */\n      swap1\n      pop\n        /* \"#utility.yul\":6368:6787   */\n      swap2\n      swap1\n      pop\n      jump\t// out\n        /* \"#utility.yul\":6793:6973   */\n    tag_130:\n        /* \"#utility.yul\":6841:6918   */\n      0x4e487b7100000000000000000000000000000000000000000000000000000000\n        /* \"#utility.yul\":6838:6839   */\n      0x00\n        /* \"#utility.yul\":6831:6919   */\n      mstore\n        /* \"#utility.yul\":6938:6942   */\n      0x11\n        /* \"#utility.yul\":6935:6936   */\n      0x04\n        /* \"#utility.yul\":6928:6943   */\n      mstore\n        /* \"#utility.yul\":6962:6966   */\n      0x24\n        /* \"#utility.yul\":6959:6960   */\n      0x00\n        /* \"#utility.yul\":6952:6967   */\n      revert\n        /* \"#utility.yul\":6979:7389   */\n    tag_49:\n        /* \"#utility.yul\":7019:7026   */\n      0x00\n        /* \"#utility.yul\":7042:7062   */\n      tag_220\n        /* \"#utility.yul\":7060:7061   */\n      dup3\n        /* \"#utility.yul\":7042:7062   */\n      tag_118\n      jump\t// in\n    tag_220:\n        /* \"#utility.yul\":7037:7062   */\n      swap2\n      pop\n        /* \"#utility.yul\":7076:7096   */\n      tag_221\n        /* \"#utility.yul\":7094:7095   */\n      dup4\n        /* \"#utility.yul\":7076:7096   */\n      tag_118\n      jump\t// in\n    tag_221:\n        /* \"#utility.yul\":7071:7096   */\n      swap3\n      pop\n        /* \"#utility.yul\":7131:7132   */\n      dup3\n        /* \"#utility.yul\":7128:7129   */\n      dup3\n        /* \"#utility.yul\":7124:7133   */\n      mul\n        /* \"#utility.yul\":7153:7183   */\n      tag_222\n        /* \"#utility.yul\":7171:7182   */\n      dup2\n        /* \"#utility.yul\":7153:7183   */\n      tag_118\n      jump\t// in\n    tag_222:\n        /* \"#utility.yul\":7142:7183   */\n      swap2\n      pop\n        /* \"#utility.yul\":7332:7333   */\n      dup3\n        /* \"#utility.yul\":7323:7330   */\n      dup3\n        /* \"#utility.yul\":7319:7334   */\n      div\n        /* \"#utility.yul\":7316:7317   */\n      dup5\n        /* \"#utility.yul\":7313:7335   */\n      eq\n        /* \"#utility.yul\":7293:7294   */\n      dup4\n        /* \"#utility.yul\":7286:7295   */\n      iszero\n        /* \"#utility.yul\":7266:7349   */\n      or\n        /* \"#utility.yul\":7243:7382   */\n      tag_223\n      jumpi\n        /* \"#utility.yul\":7362:7380   */\n      tag_224\n      tag_130\n      jump\t// in\n    tag_224:\n        /* \"#utility.yul\":7243:7382   */\n    tag_223:\n        /* \"#utility.yul\":7027:7389   */\n      pop\n        /* \"#utility.yul\":6979:7389   */\n      swap3\n      swap2\n      pop\n      pop\n      jump\t// out\n        /* \"#utility.yul\":7395:7575   */\n    tag_131:\n        /* \"#utility.yul\":7443:7520   */\n      0x4e487b7100000000000000000000000000000000000000000000000000000000\n        /* \"#utility.yul\":7440:7441   */\n      0x00\n        /* \"#utility.yul\":7433:7521   */\n      mstore\n        /* \"#utility.yul\":7540:7544   */\n      0x12\n        /* \"#utility.yul\":7537:7538   */\n      0x04\n        /* \"#utility.yul\":7530:7545   */\n      mstore\n        /* \"#utility.yul\":7564:7568   */\n      0x24\n        /* \"#utility.yul\":7561:7562   */\n      0x00\n        /* \"#utility.yul\":7554:7569   */\n      revert\n        /* \"#utility.yul\":7581:7766   */\n    tag_51:\n        /* \"#utility.yul\":7621:7622   */\n      0x00\n        /* \"#utility.yul\":7638:7658   */\n      tag_227\n        /* \"#utility.yul\":7656:7657   */\n      dup3\n        /* \"#utility.yul\":7638:7658   */\n      tag_118\n      jump\t// in\n    tag_227:\n        /* \"#utility.yul\":7633:7658   */\n      swap2\n      pop\n        /* \"#utility.yul\":7672:7692   */\n      tag_228\n        /* \"#utility.yul\":7690:7691   */\n      dup4\n        /* \"#utility.yul\":7672:7692   */\n      tag_118\n      jump\t// in\n    tag_228:\n        /* \"#utility.yul\":7667:7692   */\n      swap3\n      pop\n        /* \"#utility.yul\":7711:7712   */\n      dup3\n        /* \"#utility.yul\":7701:7736   */\n      tag_229\n      jumpi\n        /* \"#utility.yul\":7716:7734   */\n      tag_230\n      tag_131\n      jump\t// in\n    tag_230:\n        /* \"#utility.yul\":7701:7736   */\n    tag_229:\n        /* \"#utility.yul\":7758:7759   */\n      dup3\n        /* \"#utility.yul\":7755:7756   */\n      dup3\n        /* \"#utility.yul\":7751:7760   */\n      div\n        /* \"#utility.yul\":7746:7760   */\n      swap1\n      pop\n        /* \"#utility.yul\":7581:7766   */\n      swap3\n      swap2\n      pop\n      pop\n      jump\t// out\n        /* \"#utility.yul\":7772:7943   */\n    tag_132:\n        /* \"#utility.yul\":7912:7935   */\n      0x436f6e74726570617274696520696e6163746976650000000000000000000000\n        /* \"#utility.yul\":7908:7909   */\n      0x00\n        /* \"#utility.yul\":7900:7906   */\n      dup3\n        /* \"#utility.yul\":7896:7910   */\n      add\n        /* \"#utility.yul\":7889:7936   */\n      mstore\n        /* \"#utility.yul\":7772:7943   */\n      pop\n      jump\t// out\n        /* \"#utility.yul\":7949:8315   */\n    tag_133:\n        /* \"#utility.yul\":8091:8094   */\n      0x00\n        /* \"#utility.yul\":8112:8179   */\n      tag_233\n        /* \"#utility.yul\":8176:8178   */\n      0x15\n        /* \"#utility.yul\":8171:8174   */\n      dup4\n        /* \"#utility.yul\":8112:8179   */\n      tag_125\n      jump\t// in\n    tag_233:\n        /* \"#utility.yul\":8105:8179   */\n      swap2\n      pop\n        /* \"#utility.yul\":8188:8281   */\n      tag_234\n        /* \"#utility.yul\":8277:8280   */\n      dup3\n        /* \"#utility.yul\":8188:8281   */\n      tag_132\n      jump\t// in\n    tag_234:\n        /* \"#utility.yul\":8306:8308   */\n      0x20\n        /* \"#utility.yul\":8301:8304   */\n      dup3\n        /* \"#utility.yul\":8297:8309   */\n      add\n        /* \"#utility.yul\":8290:8309   */\n      swap1\n      pop\n        /* \"#utility.yul\":7949:8315   */\n      swap2\n      swap1\n      pop\n      jump\t// out\n        /* \"#utility.yul\":8321:8740   */\n    tag_57:\n        /* \"#utility.yul\":8487:8491   */\n      0x00\n        /* \"#utility.yul\":8525:8527   */\n      0x20\n        /* \"#utility.yul\":8514:8523   */\n      dup3\n        /* \"#utility.yul\":8510:8528   */\n      add\n        /* \"#utility.yul\":8502:8528   */\n      swap1\n      pop\n        /* \"#utility.yul\":8574:8583   */\n      dup2\n        /* \"#utility.yul\":8568:8572   */\n      dup2\n        /* \"#utility.yul\":8564:8584   */\n      sub\n        /* \"#utility.yul\":8560:8561   */\n      0x00\n        /* \"#utility.yul\":8549:8558   */\n      dup4\n        /* \"#utility.yul\":8545:8562   */\n      add\n        /* \"#utility.yul\":8538:8585   */\n      mstore\n        /* \"#utility.yul\":8602:8733   */\n      tag_236\n        /* \"#utility.yul\":8728:8732   */\n      dup2\n        /* \"#utility.yul\":8602:8733   */\n      tag_133\n      jump\t// in\n    tag_236:\n        /* \"#utility.yul\":8594:8733   */\n      swap1\n      pop\n        /* \"#utility.yul\":8321:8740   */\n      swap2\n      swap1\n      pop\n      jump\t// out\n        /* \"#utility.yul\":8746:8971   */\n    tag_134:\n        /* \"#utility.yul\":8886:8920   */\n      0x4c276578706f736974696f6e206e652070657574207061732065747265206e65\n        /* \"#utility.yul\":8882:8883   */\n      0x00\n        /* \"#utility.yul\":8874:8880   */\n      dup3\n        /* \"#utility.yul\":8870:8884   */\n      add\n        /* \"#utility.yul\":8863:8921   */\n      mstore\n        /* \"#utility.yul\":8955:8963   */\n      0x6761746976650000000000000000000000000000000000000000000000000000\n        /* \"#utility.yul\":8950:8952   */\n      0x20\n        /* \"#utility.yul\":8942:8948   */\n      dup3\n        /* \"#utility.yul\":8938:8953   */\n      add\n        /* \"#utility.yul\":8931:8964   */\n      mstore\n        /* \"#utility.yul\":8746:8971   */\n      pop\n      jump\t// out\n        /* \"#utility.yul\":8977:9343   */\n    tag_135:\n        /* \"#utility.yul\":9119:9122   */\n      0x00\n        /* \"#utility.yul\":9140:9207   */\n      tag_239\n        /* \"#utility.yul\":9204:9206   */\n      0x26\n        /* \"#utility.yul\":9199:9202   */\n      dup4\n        /* \"#utility.yul\":9140:9207   */\n      tag_125\n      jump\t// in\n    tag_239:\n        /* \"#utility.yul\":9133:9207   */\n      swap2\n      pop\n        /* \"#utility.yul\":9216:9309   */\n      tag_240\n        /* \"#utility.yul\":9305:9308   */\n      dup3\n        /* \"#utility.yul\":9216:9309   */\n      tag_134\n      jump\t// in\n    tag_240:\n        /* \"#utility.yul\":9334:9336   */\n      0x40\n        /* \"#utility.yul\":9329:9332   */\n      dup3\n        /* \"#utility.yul\":9325:9337   */\n      add\n        /* \"#utility.yul\":9318:9337   */\n      swap1\n      pop\n        /* \"#utility.yul\":8977:9343   */\n      swap2\n      swap1\n      pop\n      jump\t// out\n        /* \"#utility.yul\":9349:9768   */\n    tag_60:\n        /* \"#utility.yul\":9515:9519   */\n      0x00\n        /* \"#utility.yul\":9553:9555   */\n      0x20\n        /* \"#utility.yul\":9542:9551   */\n      dup3\n        /* \"#utility.yul\":9538:9556   */\n      add\n        /* \"#utility.yul\":9530:9556   */\n      swap1\n      pop\n        /* \"#utility.yul\":9602:9611   */\n      dup2\n        /* \"#utility.yul\":9596:9600   */\n      dup2\n        /* \"#utility.yul\":9592:9612   */\n      sub\n        /* \"#utility.yul\":9588:9589   */\n      0x00\n        /* \"#utility.yul\":9577:9586   */\n      dup4\n        /* \"#utility.yul\":9573:9590   */\n      add\n        /* \"#utility.yul\":9566:9613   */\n      mstore\n        /* \"#utility.yul\":9630:9761   */\n      tag_242\n        /* \"#utility.yul\":9756:9760   */\n      dup2\n        /* \"#utility.yul\":9630:9761   */\n      tag_135\n      jump\t// in\n    tag_242:\n        /* \"#utility.yul\":9622:9761   */\n      swap1\n      pop\n        /* \"#utility.yul\":9349:9768   */\n      swap2\n      swap1\n      pop\n      jump\t// out\n        /* \"#utility.yul\":9774:9952   */\n    tag_136:\n        /* \"#utility.yul\":9914:9944   */\n      0x4578706f736974696f6e20636f7572616e746520696e76616c69646500000000\n        /* \"#utility.yul\":9910:9911   */\n      0x00\n        /* \"#utility.yul\":9902:9908   */\n      dup3\n        /* \"#utility.yul\":9898:9912   */\n      add\n        /* \"#utility.yul\":9891:9945   */\n      mstore\n        /* \"#utility.yul\":9774:9952   */\n      pop\n      jump\t// out\n        /* \"#utility.yul\":9958:10324   */\n    tag_137:\n        /* \"#utility.yul\":10100:10103   */\n      0x00\n        /* \"#utility.yul\":10121:10188   */\n      tag_245\n        /* \"#utility.yul\":10185:10187   */\n      0x1c\n        /* \"#utility.yul\":10180:10183   */\n      dup4\n        /* \"#utility.yul\":10121:10188   */\n      tag_125\n      jump\t// in\n    tag_245:\n        /* \"#utility.yul\":10114:10188   */\n      swap2\n      pop\n        /* \"#utility.yul\":10197:10290   */\n      tag_246\n        /* \"#utility.yul\":10286:10289   */\n      dup3\n        /* \"#utility.yul\":10197:10290   */\n      tag_136\n      jump\t// in\n    tag_246:\n        /* \"#utility.yul\":10315:10317   */\n      0x20\n        /* \"#utility.yul\":10310:10313   */\n      dup3\n        /* \"#utility.yul\":10306:10318   */\n      add\n        /* \"#utility.yul\":10299:10318   */\n      swap1\n      pop\n        /* \"#utility.yul\":9958:10324   */\n      swap2\n      swap1\n      pop\n      jump\t// out\n        /* \"#utility.yul\":10330:10749   */\n    tag_69:\n        /* \"#utility.yul\":10496:10500   */\n      0x00\n        /* \"#utility.yul\":10534:10536   */\n      0x20\n        /* \"#utility.yul\":10523:10532   */\n      dup3\n        /* \"#utility.yul\":10519:10537   */\n      add\n        /* \"#utility.yul\":10511:10537   */\n      swap1\n      pop\n        /* \"#utility.yul\":10583:10592   */\n      dup2\n        /* \"#utility.yul\":10577:10581   */\n      dup2\n        /* \"#utility.yul\":10573:10593   */\n      sub\n        /* \"#utility.yul\":10569:10570   */\n      0x00\n        /* \"#utility.yul\":10558:10567   */\n      dup4\n        /* \"#utility.yul\":10554:10571   */\n      add\n        /* \"#utility.yul\":10547:10594   */\n      mstore\n        /* \"#utility.yul\":10611:10742   */\n      tag_248\n        /* \"#utility.yul\":10737:10741   */\n      dup2\n        /* \"#utility.yul\":10611:10742   */\n      tag_137\n      jump\t// in\n    tag_248:\n        /* \"#utility.yul\":10603:10742   */\n      swap1\n      pop\n        /* \"#utility.yul\":10330:10749   */\n      swap2\n      swap1\n      pop\n      jump\t// out\n        /* \"#utility.yul\":10755:10975   */\n    tag_138:\n        /* \"#utility.yul\":10895:10929   */\n      0x6e276163636570746520706173206465732076616c657572206e656761746976\n        /* \"#utility.yul\":10891:10892   */\n      0x00\n        /* \"#utility.yul\":10883:10889   */\n      dup3\n        /* \"#utility.yul\":10879:10893   */\n      add\n        /* \"#utility.yul\":10872:10930   */\n      mstore\n        /* \"#utility.yul\":10964:10967   */\n      0x6500000000000000000000000000000000000000000000000000000000000000\n        /* \"#utility.yul\":10959:10961   */\n      0x20\n        /* \"#utility.yul\":10951:10957   */\n      dup3\n        /* \"#utility.yul\":10947:10962   */\n      add\n        /* \"#utility.yul\":10940:10968   */\n      mstore\n        /* \"#utility.yul\":10755:10975   */\n      pop\n      jump\t// out\n        /* \"#utility.yul\":10981:11347   */\n    tag_139:\n        /* \"#utility.yul\":11123:11126   */\n      0x00\n        /* \"#utility.yul\":11144:11211   */\n      tag_251\n        /* \"#utility.yul\":11208:11210   */\n      0x21\n        /* \"#utility.yul\":11203:11206   */\n      dup4\n        /* \"#utility.yul\":11144:11211   */\n      tag_125\n      jump\t// in\n    tag_251:\n        /* \"#utility.yul\":11137:11211   */\n      swap2\n      pop\n        /* \"#utility.yul\":11220:11313   */\n      tag_252\n        /* \"#utility.yul\":11309:11312   */\n      dup3\n        /* \"#utility.yul\":11220:11313   */\n      tag_138\n      jump\t// in\n    tag_252:\n        /* \"#utility.yul\":11338:11340   */\n      0x40\n        /* \"#utility.yul\":11333:11336   */\n      dup3\n        /* \"#utility.yul\":11329:11341   */\n      add\n        /* \"#utility.yul\":11322:11341   */\n      swap1\n      pop\n        /* \"#utility.yul\":10981:11347   */\n      swap2\n      swap1\n      pop\n      jump\t// out\n        /* \"#utility.yul\":11353:11772   */\n    tag_78:\n        /* \"#utility.yul\":11519:11523   */\n      0x00\n        /* \"#utility.yul\":11557:11559   */\n      0x20\n        /* \"#utility.yul\":11546:11555   */\n      dup3\n        /* \"#utility.yul\":11542:11560   */\n      add\n        /* \"#utility.yul\":11534:11560   */\n      swap1\n      pop\n        /* \"#utility.yul\":11606:11615   */\n      dup2\n        /* \"#utility.yul\":11600:11604   */\n      dup2\n        /* \"#utility.yul\":11596:11616   */\n      sub\n        /* \"#utility.yul\":11592:11593   */\n      0x00\n        /* \"#utility.yul\":11581:11590   */\n      dup4\n        /* \"#utility.yul\":11577:11594   */\n      add\n        /* \"#utility.yul\":11570:11617   */\n      mstore\n        /* \"#utility.yul\":11634:11765   */\n      tag_254\n        /* \"#utility.yul\":11760:11764   */\n      dup2\n        /* \"#utility.yul\":11634:11765   */\n      tag_139\n      jump\t// in\n    tag_254:\n        /* \"#utility.yul\":11626:11765   */\n      swap1\n      pop\n        /* \"#utility.yul\":11353:11772   */\n      swap2\n      swap1\n      pop\n      jump\t// out\n        /* \"#utility.yul\":11778:11956   */\n    tag_140:\n        /* \"#utility.yul\":11918:11948   */\n      0x4c696d6974652064276578706f736974696f6e20696e76616c69646500000000\n        /* \"#utility.yul\":11914:11915   */\n      0x00\n        /* \"#utility.yul\":11906:11912   */\n      dup3\n        /* \"#utility.yul\":11902:11916   */\n      add\n        /* \"#utility.yul\":11895:11949   */\n      mstore\n        /* \"#utility.yul\":11778:11956   */\n      pop\n      jump\t// out\n        /* \"#utility.yul\":11962:12328   */\n    tag_141:\n        /* \"#utility.yul\":12104:12107   */\n      0x00\n        /* \"#utility.yul\":12125:12192   */\n      tag_257\n        /* \"#utility.yul\":12189:12191   */\n      0x1c\n        /* \"#utility.yul\":12184:12187   */\n      dup4\n        /* \"#utility.yul\":12125:12192   */\n      tag_125\n      jump\t// in\n    tag_257:\n        /* \"#utility.yul\":12118:12192   */\n      swap2\n      pop\n        /* \"#utility.yul\":12201:12294   */\n      tag_258\n        /* \"#utility.yul\":12290:12293   */\n      dup3\n        /* \"#utility.yul\":12201:12294   */\n      tag_140\n      jump\t// in\n    tag_258:\n        /* \"#utility.yul\":12319:12321   */\n      0x20\n        /* \"#utility.yul\":12314:12317   */\n      dup3\n        /* \"#utility.yul\":12310:12322   */\n      add\n        /* \"#utility.yul\":12303:12322   */\n      swap1\n      pop\n        /* \"#utility.yul\":11962:12328   */\n      swap2\n      swap1\n      pop\n      jump\t// out\n        /* \"#utility.yul\":12334:12753   */\n    tag_84:\n        /* \"#utility.yul\":12500:12504   */\n      0x00\n        /* \"#utility.yul\":12538:12540   */\n      0x20\n        /* \"#utility.yul\":12527:12536   */\n      dup3\n        /* \"#utility.yul\":12523:12541   */\n      add\n        /* \"#utility.yul\":12515:12541   */\n      swap1\n      pop\n        /* \"#utility.yul\":12587:12596   */\n      dup2\n        /* \"#utility.yul\":12581:12585   */\n      dup2\n        /* \"#utility.yul\":12577:12597   */\n      sub\n        /* \"#utility.yul\":12573:12574   */\n      0x00\n        /* \"#utility.yul\":12562:12571   */\n      dup4\n        /* \"#utility.yul\":12558:12575   */\n      add\n        /* \"#utility.yul\":12551:12598   */\n      mstore\n        /* \"#utility.yul\":12615:12746   */\n      tag_260\n        /* \"#utility.yul\":12741:12745   */\n      dup2\n        /* \"#utility.yul\":12615:12746   */\n      tag_141\n      jump\t// in\n    tag_260:\n        /* \"#utility.yul\":12607:12746   */\n      swap1\n      pop\n        /* \"#utility.yul\":12334:12753   */\n      swap2\n      swap1\n      pop\n      jump\t// out\n        /* \"#utility.yul\":12759:12933   */\n    tag_142:\n        /* \"#utility.yul\":12899:12925   */\n      0x436f6e747265706172746965206578697374652064656a610000000000000000\n        /* \"#utility.yul\":12895:12896   */\n      0x00\n        /* \"#utility.yul\":12887:12893   */\n      dup3\n        /* \"#utility.yul\":12883:12897   */\n      add\n        /* \"#utility.yul\":12876:12926   */\n      mstore\n        /* \"#utility.yul\":12759:12933   */\n      pop\n      jump\t// out\n        /* \"#utility.yul\":12939:13305   */\n    tag_143:\n        /* \"#utility.yul\":13081:13084   */\n      0x00\n        /* \"#utility.yul\":13102:13169   */\n      tag_263\n        /* \"#utility.yul\":13166:13168   */\n      0x18\n        /* \"#utility.yul\":13161:13164   */\n      dup4\n        /* \"#utility.yul\":13102:13169   */\n      tag_125\n      jump\t// in\n    tag_263:\n        /* \"#utility.yul\":13095:13169   */\n      swap2\n      pop\n        /* \"#utility.yul\":13178:13271   */\n      tag_264\n        /* \"#utility.yul\":13267:13270   */\n      dup3\n        /* \"#utility.yul\":13178:13271   */\n      tag_142\n      jump\t// in\n    tag_264:\n        /* \"#utility.yul\":13296:13298   */\n      0x20\n        /* \"#utility.yul\":13291:13294   */\n      dup3\n        /* \"#utility.yul\":13287:13299   */\n      add\n        /* \"#utility.yul\":13280:13299   */\n      swap1\n      pop\n        /* \"#utility.yul\":12939:13305   */\n      swap2\n      swap1\n      pop\n      jump\t// out\n        /* \"#utility.yul\":13311:13730   */\n    tag_91:\n        /* \"#utility.yul\":13477:13481   */\n      0x00\n        /* \"#utility.yul\":13515:13517   */\n      0x20\n        /* \"#utility.yul\":13504:13513   */\n      dup3\n        /* \"#utility.yul\":13500:13518   */\n      add\n        /* \"#utility.yul\":13492:13518   */\n      swap1\n      pop\n        /* \"#utility.yul\":13564:13573   */\n      dup2\n        /* \"#utility.yul\":13558:13562   */\n      dup2\n        /* \"#utility.yul\":13554:13574   */\n      sub\n        /* \"#utility.yul\":13550:13551   */\n      0x00\n        /* \"#utility.yul\":13539:13548   */\n      dup4\n        /* \"#utility.yul\":13535:13552   */\n      add\n        /* \"#utility.yul\":13528:13575   */\n      mstore\n        /* \"#utility.yul\":13592:13723   */\n      tag_266\n        /* \"#utility.yul\":13718:13722   */\n      dup2\n        /* \"#utility.yul\":13592:13723   */\n      tag_143\n      jump\t// in\n    tag_266:\n        /* \"#utility.yul\":13584:13723   */\n      swap1\n      pop\n        /* \"#utility.yul\":13311:13730   */\n      swap2\n      swap1\n      pop\n      jump\t// out\n        /* \"#utility.yul\":13736:13956   */\n    tag_144:\n        /* \"#utility.yul\":13876:13910   */\n      0x53636f72652064652063726564697420646f6974206574726520706f73697469\n        /* \"#utility.yul\":13872:13873   */\n      0x00\n        /* \"#utility.yul\":13864:13870   */\n      dup3\n        /* \"#utility.yul\":13860:13874   */\n      add\n        /* \"#utility.yul\":13853:13911   */\n      mstore\n        /* \"#utility.yul\":13945:13948   */\n      0x6600000000000000000000000000000000000000000000000000000000000000\n        /* \"#utility.yul\":13940:13942   */\n      0x20\n        /* \"#utility.yul\":13932:13938   */\n      dup3\n        /* \"#utility.yul\":13928:13943   */\n      add\n        /* \"#utility.yul\":13921:13949   */\n      mstore\n        /* \"#utility.yul\":13736:13956   */\n      pop\n      jump\t// out\n        /* \"#utility.yul\":13962:14328   */\n    tag_145:\n        /* \"#utility.yul\":14104:14107   */\n      0x00\n        /* \"#utility.yul\":14125:14192   */\n      tag_269\n        /* \"#utility.yul\":14189:14191   */\n      0x21\n        /* \"#utility.yul\":14184:14187   */\n      dup4\n        /* \"#utility.yul\":14125:14192   */\n      tag_125\n      jump\t// in\n    tag_269:\n        /* \"#utility.yul\":14118:14192   */\n      swap2\n      pop\n        /* \"#utility.yul\":14201:14294   */\n      tag_270\n        /* \"#utility.yul\":14290:14293   */\n      dup3\n        /* \"#utility.yul\":14201:14294   */\n      tag_144\n      jump\t// in\n    tag_270:\n        /* \"#utility.yul\":14319:14321   */\n      0x40\n        /* \"#utility.yul\":14314:14317   */\n      dup3\n        /* \"#utility.yul\":14310:14322   */\n      add\n        /* \"#utility.yul\":14303:14322   */\n      swap1\n      pop\n        /* \"#utility.yul\":13962:14328   */\n      swap2\n      swap1\n      pop\n      jump\t// out\n        /* \"#utility.yul\":14334:14753   */\n    tag_94:\n        /* \"#utility.yul\":14500:14504   */\n      0x00\n        /* \"#utility.yul\":14538:14540   */\n      0x20\n        /* \"#utility.yul\":14527:14536   */\n      dup3\n        /* \"#utility.yul\":14523:14541   */\n      add\n        /* \"#utility.yul\":14515:14541   */\n      swap1\n      pop\n        /* \"#utility.yul\":14587:14596   */\n      dup2\n        /* \"#utility.yul\":14581:14585   */\n      dup2\n        /* \"#utility.yul\":14577:14597   */\n      sub\n        /* \"#utility.yul\":14573:14574   */\n      0x00\n        /* \"#utility.yul\":14562:14571   */\n      dup4\n        /* \"#utility.yul\":14558:14575   */\n      add\n        /* \"#utility.yul\":14551:14598   */\n      mstore\n        /* \"#utility.yul\":14615:14746   */\n      tag_272\n        /* \"#utility.yul\":14741:14745   */\n      dup2\n        /* \"#utility.yul\":14615:14746   */\n      tag_145\n      jump\t// in\n    tag_272:\n        /* \"#utility.yul\":14607:14746   */\n      swap1\n      pop\n        /* \"#utility.yul\":14334:14753   */\n      swap2\n      swap1\n      pop\n      jump\t// out\n        /* \"#utility.yul\":14759:14984   */\n    tag_146:\n        /* \"#utility.yul\":14899:14933   */\n      0x4c696d6974652064276578706f736974696f6e20646f6974206574726520706f\n        /* \"#utility.yul\":14895:14896   */\n      0x00\n        /* \"#utility.yul\":14887:14893   */\n      dup3\n        /* \"#utility.yul\":14883:14897   */\n      add\n        /* \"#utility.yul\":14876:14934   */\n      mstore\n        /* \"#utility.yul\":14968:14976   */\n      0x7369746976650000000000000000000000000000000000000000000000000000\n        /* \"#utility.yul\":14963:14965   */\n      0x20\n        /* \"#utility.yul\":14955:14961   */\n      dup3\n        /* \"#utility.yul\":14951:14966   */\n      add\n        /* \"#utility.yul\":14944:14977   */\n      mstore\n        /* \"#utility.yul\":14759:14984   */\n      pop\n      jump\t// out\n        /* \"#utility.yul\":14990:15356   */\n    tag_147:\n        /* \"#utility.yul\":15132:15135   */\n      0x00\n        /* \"#utility.yul\":15153:15220   */\n      tag_275\n        /* \"#utility.yul\":15217:15219   */\n      0x26\n        /* \"#utility.yul\":15212:15215   */\n      dup4\n        /* \"#utility.yul\":15153:15220   */\n      tag_125\n      jump\t// in\n    tag_275:\n        /* \"#utility.yul\":15146:15220   */\n      swap2\n      pop\n        /* \"#utility.yul\":15229:15322   */\n      tag_276\n        /* \"#utility.yul\":15318:15321   */\n      dup3\n        /* \"#utility.yul\":15229:15322   */\n      tag_146\n      jump\t// in\n    tag_276:\n        /* \"#utility.yul\":15347:15349   */\n      0x40\n        /* \"#utility.yul\":15342:15345   */\n      dup3\n        /* \"#utility.yul\":15338:15350   */\n      add\n        /* \"#utility.yul\":15331:15350   */\n      swap1\n      pop\n        /* \"#utility.yul\":14990:15356   */\n      swap2\n      swap1\n      pop\n      jump\t// out\n        /* \"#utility.yul\":15362:15781   */\n    tag_97:\n        /* \"#utility.yul\":15528:15532   */\n      0x00\n        /* \"#utility.yul\":15566:15568   */\n      0x20\n        /* \"#utility.yul\":15555:15564   */\n      dup3\n        /* \"#utility.yul\":15551:15569   */\n      add\n        /* \"#utility.yul\":15543:15569   */\n      swap1\n      pop\n        /* \"#utility.yul\":15615:15624   */\n      dup2\n        /* \"#utility.yul\":15609:15613   */\n      dup2\n        /* \"#utility.yul\":15605:15625   */\n      sub\n        /* \"#utility.yul\":15601:15602   */\n      0x00\n        /* \"#utility.yul\":15590:15599   */\n      dup4\n        /* \"#utility.yul\":15586:15603   */\n      add\n        /* \"#utility.yul\":15579:15626   */\n      mstore\n        /* \"#utility.yul\":15643:15774   */\n      tag_278\n        /* \"#utility.yul\":15769:15773   */\n      dup2\n        /* \"#utility.yul\":15643:15774   */\n      tag_147\n      jump\t// in\n    tag_278:\n        /* \"#utility.yul\":15635:15774   */\n      swap1\n      pop\n        /* \"#utility.yul\":15362:15781   */\n      swap2\n      swap1\n      pop\n      jump\t// out\n        /* \"#utility.yul\":15787:15962   */\n    tag_148:\n        /* \"#utility.yul\":15927:15954   */\n      0x526174696f20646520636f757665727475726520656c65766500000000000000\n        /* \"#utility.yul\":15923:15924   */\n      0x00\n        /* \"#utility.yul\":15915:15921   */\n      dup3\n        /* \"#utility.yul\":15911:15925   */\n      add\n        /* \"#utility.yul\":15904:15955   */\n      mstore\n        /* \"#utility.yul\":15787:15962   */\n      pop\n      jump\t// out\n        /* \"#utility.yul\":15968:16334   */\n    tag_149:\n        /* \"#utility.yul\":16110:16113   */\n      0x00\n        /* \"#utility.yul\":16131:16198   */\n      tag_281\n        /* \"#utility.yul\":16195:16197   */\n      0x19\n        /* \"#utility.yul\":16190:16193   */\n      dup4\n        /* \"#utility.yul\":16131:16198   */\n      tag_125\n      jump\t// in\n    tag_281:\n        /* \"#utility.yul\":16124:16198   */\n      swap2\n      pop\n        /* \"#utility.yul\":16207:16300   */\n      tag_282\n        /* \"#utility.yul\":16296:16299   */\n      dup3\n        /* \"#utility.yul\":16207:16300   */\n      tag_148\n      jump\t// in\n    tag_282:\n        /* \"#utility.yul\":16325:16327   */\n      0x20\n        /* \"#utility.yul\":16320:16323   */\n      dup3\n        /* \"#utility.yul\":16316:16328   */\n      add\n        /* \"#utility.yul\":16309:16328   */\n      swap1\n      pop\n        /* \"#utility.yul\":15968:16334   */\n      swap2\n      swap1\n      pop\n      jump\t// out\n        /* \"#utility.yul\":16340:16869   */\n    tag_106:\n        /* \"#utility.yul\":16534:16538   */\n      0x00\n        /* \"#utility.yul\":16572:16574   */\n      0x40\n        /* \"#utility.yul\":16561:16570   */\n      dup3\n        /* \"#utility.yul\":16557:16575   */\n      add\n        /* \"#utility.yul\":16549:16575   */\n      swap1\n      pop\n        /* \"#utility.yul\":16621:16630   */\n      dup2\n        /* \"#utility.yul\":16615:16619   */\n      dup2\n        /* \"#utility.yul\":16611:16631   */\n      sub\n        /* \"#utility.yul\":16607:16608   */\n      0x00\n        /* \"#utility.yul\":16596:16605   */\n      dup4\n        /* \"#utility.yul\":16592:16609   */\n      add\n        /* \"#utility.yul\":16585:16632   */\n      mstore\n        /* \"#utility.yul\":16649:16780   */\n      tag_284\n        /* \"#utility.yul\":16775:16779   */\n      dup2\n        /* \"#utility.yul\":16649:16780   */\n      tag_149\n      jump\t// in\n    tag_284:\n        /* \"#utility.yul\":16641:16780   */\n      swap1\n      pop\n        /* \"#utility.yul\":16790:16862   */\n      tag_285\n        /* \"#utility.yul\":16858:16860   */\n      0x20\n        /* \"#utility.yul\":16847:16856   */\n      dup4\n        /* \"#utility.yul\":16843:16861   */\n      add\n        /* \"#utility.yul\":16834:16840   */\n      dup5\n        /* \"#utility.yul\":16790:16862   */\n      tag_119\n      jump\t// in\n    tag_285:\n        /* \"#utility.yul\":16340:16869   */\n      swap3\n      swap2\n      pop\n      pop\n      jump\t// out\n        /* \"#utility.yul\":16875:17046   */\n    tag_150:\n        /* \"#utility.yul\":17015:17038   */\n      0x53636f72652064652072697371756520656c6576650000000000000000000000\n        /* \"#utility.yul\":17011:17012   */\n      0x00\n        /* \"#utility.yul\":17003:17009   */\n      dup3\n        /* \"#utility.yul\":16999:17013   */\n      add\n        /* \"#utility.yul\":16992:17039   */\n      mstore\n        /* \"#utility.yul\":16875:17046   */\n      pop\n      jump\t// out\n        /* \"#utility.yul\":17052:17418   */\n    tag_151:\n        /* \"#utility.yul\":17194:17197   */\n      0x00\n        /* \"#utility.yul\":17215:17282   */\n      tag_288\n        /* \"#utility.yul\":17279:17281   */\n      0x15\n        /* \"#utility.yul\":17274:17277   */\n      dup4\n        /* \"#utility.yul\":17215:17282   */\n      tag_125\n      jump\t// in\n    tag_288:\n        /* \"#utility.yul\":17208:17282   */\n      swap2\n      pop\n        /* \"#utility.yul\":17291:17384   */\n      tag_289\n        /* \"#utility.yul\":17380:17383   */\n      dup3\n        /* \"#utility.yul\":17291:17384   */\n      tag_150\n      jump\t// in\n    tag_289:\n        /* \"#utility.yul\":17409:17411   */\n      0x20\n        /* \"#utility.yul\":17404:17407   */\n      dup3\n        /* \"#utility.yul\":17400:17412   */\n      add\n        /* \"#utility.yul\":17393:17412   */\n      swap1\n      pop\n        /* \"#utility.yul\":17052:17418   */\n      swap2\n      swap1\n      pop\n      jump\t// out\n        /* \"#utility.yul\":17424:17953   */\n    tag_110:\n        /* \"#utility.yul\":17618:17622   */\n      0x00\n        /* \"#utility.yul\":17656:17658   */\n      0x40\n        /* \"#utility.yul\":17645:17654   */\n      dup3\n        /* \"#utility.yul\":17641:17659   */\n      add\n        /* \"#utility.yul\":17633:17659   */\n      swap1\n      pop\n        /* \"#utility.yul\":17705:17714   */\n      dup2\n        /* \"#utility.yul\":17699:17703   */\n      dup2\n        /* \"#utility.yul\":17695:17715   */\n      sub\n        /* \"#utility.yul\":17691:17692   */\n      0x00\n        /* \"#utility.yul\":17680:17689   */\n      dup4\n        /* \"#utility.yul\":17676:17693   */\n      add\n        /* \"#utility.yul\":17669:17716   */\n      mstore\n        /* \"#utility.yul\":17733:17864   */\n      tag_291\n        /* \"#utility.yul\":17859:17863   */\n      dup2\n        /* \"#utility.yul\":17733:17864   */\n      tag_151\n      jump\t// in\n    tag_291:\n        /* \"#utility.yul\":17725:17864   */\n      swap1\n      pop\n        /* \"#utility.yul\":17874:17946   */\n      tag_292\n        /* \"#utility.yul\":17942:17944   */\n      0x20\n        /* \"#utility.yul\":17931:17940   */\n      dup4\n        /* \"#utility.yul\":17927:17945   */\n      add\n        /* \"#utility.yul\":17918:17924   */\n      dup5\n        /* \"#utility.yul\":17874:17946   */\n      tag_119\n      jump\t// in\n    tag_292:\n        /* \"#utility.yul\":17424:17953   */\n      swap3\n      swap2\n      pop\n      pop\n      jump\t// out\n\n    auxdata: 0xa26469706673582212209eff869968cc3523cf42ef92899593f2de3bd1a9c34307be972b0e4873bf071464736f6c634300081a0033\n}\n",
				"bytecode": {
					"linkReferences": {},
					"object": "6080604052348015600e575f80fd5b506118518061001c5f395ff3fe608060405234801561000f575f80fd5b506004361061007b575f3560e01c80635d8886c0116100595780635d8886c0146100fb578063760b1eee146101175780638e068eb01461014e578063c04dcc301461017e5761007b565b80630aae162e1461007f5780631922701e146100af5780632d83e6b1146100cb575b5f80fd5b61009960048036038101906100949190610fa6565b61019a565b6040516100a69190610fe9565b60405180910390f35b6100c960048036038101906100c4919061102c565b61036f565b005b6100e560048036038101906100e09190610fa6565b610536565b6040516100f29190610fe9565b60405180910390f35b6101156004803603810190610110919061102c565b61071b565b005b610131600480360381019061012c9190610fa6565b61083b565b604051610145989796959493929190611093565b60405180910390f35b61016860048036038101906101639190610fa6565b6108a9565b6040516101759190610fe9565b60405180910390f35b6101986004803603810190610193919061110f565b610a8e565b005b5f805f808473ffffffffffffffffffffffffffffffffffffffff1673ffffffffffffffffffffffffffffffffffffffff1681526020019081526020015f20604051806101000160405290815f82015f9054906101000a900473ffffffffffffffffffffffffffffffffffffffff1673ffffffffffffffffffffffffffffffffffffffff1673ffffffffffffffffffffffffffffffffffffffff168152602001600182015481526020016002820154815260200160038201548152602001600482015481526020016005820154815260200160068201548152602001600782015f9054906101000a900460ff16151515158152505090505f73ffffffffffffffffffffffffffffffffffffffff16815f015173ffffffffffffffffffffffffffffffffffffffff1603610301576040517f08c379a00000000000000000000000000000000000000000000000000000000081526004016102f8906111e0565b60405180910390fd5b5f816060015111610347576040517f08c379a000000000000000000000000000000000000000000000000000000000815260040161033e9061126e565b60405180910390fd5b80606001516064826080015161035d91906112b9565b6103679190611327565b915050919050565b5f805f8473ffffffffffffffffffffffffffffffffffffffff1673ffffffffffffffffffffffffffffffffffffffff1681526020019081526020015f2090505f73ffffffffffffffffffffffffffffffffffffffff16815f015f9054906101000a900473ffffffffffffffffffffffffffffffffffffffff1673ffffffffffffffffffffffffffffffffffffffff160361043e576040517f08c379a0000000000000000000000000000000000000000000000000000000008152600401610435906111e0565b60405180910390fd5b806007015f9054906101000a900460ff1661048e576040517f08c379a0000000000000000000000000000000000000000000000000000000008152600401610485906113a1565b60405180910390fd5b5f8210156104d1576040517f08c379a00000000000000000000000000000000000000000000000000000000081526004016104c89061142f565b60405180910390fd5b8181600301819055508273ffffffffffffffffffffffffffffffffffffffff167fa6b582f9fa77f5eb299250871d3b51c8ff3655dd554da3f9abb294b3e92f8e1f836040516105209190610fe9565b60405180910390a261053183610d63565b505050565b5f805f808473ffffffffffffffffffffffffffffffffffffffff1673ffffffffffffffffffffffffffffffffffffffff1681526020019081526020015f20604051806101000160405290815f82015f9054906101000a900473ffffffffffffffffffffffffffffffffffffffff1673ffffffffffffffffffffffffffffffffffffffff1673ffffffffffffffffffffffffffffffffffffffff168152602001600182015481526020016002820154815260200160038201548152602001600482015481526020016005820154815260200160068201548152602001600782015f9054906101000a900460ff16151515158152505090505f73ffffffffffffffffffffffffffffffffffffffff16815f015173ffffffffffffffffffffffffffffffffffffffff160361069d576040517f08c379a0000000000000000000000000000000000000000000000000000000008152600401610694906111e0565b60405180910390fd5b5f8160600151116106e3576040517f08c379a00000000000000000000000000000000000000000000000000000000081526004016106da90611497565b60405180910390fd5b6127108160c001518260a0015183606001516106ff91906112b9565b61070991906112b9565b6107139190611327565b915050919050565b5f805f8473ffffffffffffffffffffffffffffffffffffffff1673ffffffffffffffffffffffffffffffffffffffff1681526020019081526020015f2090505f73ffffffffffffffffffffffffffffffffffffffff16815f015f9054906101000a900473ffffffffffffffffffffffffffffffffffffffff1673ffffffffffffffffffffffffffffffffffffffff16036107ea576040517f08c379a00000000000000000000000000000000000000000000000000000000081526004016107e1906111e0565b60405180910390fd5b5f82101561082d576040517f08c379a000000000000000000000000000000000000000000000000000000000815260040161082490611525565b60405180910390fd5b818160040181905550505050565b5f602052805f5260405f205f91509050805f015f9054906101000a900473ffffffffffffffffffffffffffffffffffffffff1690806001015490806002015490806003015490806004015490806005015490806006015490806007015f9054906101000a900460ff16905088565b5f805f808473ffffffffffffffffffffffffffffffffffffffff1673ffffffffffffffffffffffffffffffffffffffff1681526020019081526020015f20604051806101000160405290815f82015f9054906101000a900473ffffffffffffffffffffffffffffffffffffffff1673ffffffffffffffffffffffffffffffffffffffff1673ffffffffffffffffffffffffffffffffffffffff168152602001600182015481526020016002820154815260200160038201548152602001600482015481526020016005820154815260200160068201548152602001600782015f9054906101000a900460ff16151515158152505090505f73ffffffffffffffffffffffffffffffffffffffff16815f015173ffffffffffffffffffffffffffffffffffffffff1603610a10576040517f08c379a0000000000000000000000000000000000000000000000000000000008152600401610a07906111e0565b60405180910390fd5b5f816040015111610a56576040517f08c379a0000000000000000000000000000000000000000000000000000000008152600401610a4d9061158d565b60405180910390fd5b80602001518160400151610a6a91906112b9565b6127108260600151610a7c91906112b9565b610a869190611327565b915050919050565b5f73ffffffffffffffffffffffffffffffffffffffff165f808773ffffffffffffffffffffffffffffffffffffffff1673ffffffffffffffffffffffffffffffffffffffff1681526020019081526020015f205f015f9054906101000a900473ffffffffffffffffffffffffffffffffffffffff1673ffffffffffffffffffffffffffffffffffffffff1614610b59576040517f08c379a0000000000000000000000000000000000000000000000000000000008152600401610b50906115f5565b60405180910390fd5b5f8411610b9b576040517f08c379a0000000000000000000000000000000000000000000000000000000008152600401610b9290611683565b60405180910390fd5b5f8311610bdd576040517f08c379a0000000000000000000000000000000000000000000000000000000008152600401610bd490611711565b60405180910390fd5b6040518061010001604052808673ffffffffffffffffffffffffffffffffffffffff1681526020018581526020018481526020015f81526020015f8152602001838152602001828152602001600115158152505f808773ffffffffffffffffffffffffffffffffffffffff1673ffffffffffffffffffffffffffffffffffffffff1681526020019081526020015f205f820151815f015f6101000a81548173ffffffffffffffffffffffffffffffffffffffff021916908373ffffffffffffffffffffffffffffffffffffffff1602179055506020820151816001015560408201518160020155606082015181600301556080820151816004015560a0820151816005015560c0820151816006015560e0820151816007015f6101000a81548160ff0219169083151502179055509050508473ffffffffffffffffffffffffffffffffffffffff167f747a12c5b34abe212a3a26b67b9a8edf3ceb6bd68207c9f6c11a5161432e161484604051610d549190610fe9565b60405180910390a25050505050565b5f805f8373ffffffffffffffffffffffffffffffffffffffff1673ffffffffffffffffffffffffffffffffffffffff1681526020019081526020015f2090505f816002015460648360030154610db991906112b9565b610dc39190611327565b9050816002015482600301541115610e86575f826007015f6101000a81548160ff0219169083151502179055508273ffffffffffffffffffffffffffffffffffffffff167f74b737e83b985a0afa446389d70cccab99d200a0a63101114130a2a2dfbba9128360030154604051610e3a9190610fe9565b60405180910390a28273ffffffffffffffffffffffffffffffffffffffff167f9828dcbaa179fb6df1860c283b0038a99295505d3c63dab7e0f85ddae424e2f960405160405180910390a25b6064811115610ede578273ffffffffffffffffffffffffffffffffffffffff167f6d9eca91a729a6cf57975885a463ac2503159b33bea61598036f7a607f49786382604051610ed59190611779565b60405180910390a25b5f610ee8846108a9565b90506064811115610f42578373ffffffffffffffffffffffffffffffffffffffff167f6d9eca91a729a6cf57975885a463ac2503159b33bea61598036f7a607f49786382604051610f3991906117ef565b60405180910390a25b50505050565b5f80fd5b5f73ffffffffffffffffffffffffffffffffffffffff82169050919050565b5f610f7582610f4c565b9050919050565b610f8581610f6b565b8114610f8f575f80fd5b50565b5f81359050610fa081610f7c565b92915050565b5f60208284031215610fbb57610fba610f48565b5b5f610fc884828501610f92565b91505092915050565b5f819050919050565b610fe381610fd1565b82525050565b5f602082019050610ffc5f830184610fda565b92915050565b61100b81610fd1565b8114611015575f80fd5b50565b5f8135905061102681611002565b92915050565b5f806040838503121561104257611041610f48565b5b5f61104f85828601610f92565b925050602061106085828601611018565b9150509250929050565b61107381610f6b565b82525050565b5f8115159050919050565b61108d81611079565b82525050565b5f610100820190506110a75f83018b61106a565b6110b4602083018a610fda565b6110c16040830189610fda565b6110ce6060830188610fda565b6110db6080830187610fda565b6110e860a0830186610fda565b6110f560c0830185610fda565b61110260e0830184611084565b9998505050505050505050565b5f805f805f60a0868803121561112857611127610f48565b5b5f61113588828901610f92565b955050602061114688828901611018565b945050604061115788828901611018565b935050606061116888828901611018565b925050608061117988828901611018565b9150509295509295909350565b5f82825260208201905092915050565b7f436f6e74726570617274696520696e74726f757661626c6500000000000000005f82015250565b5f6111ca601883611186565b91506111d582611196565b602082019050919050565b5f6020820190508181035f8301526111f7816111be565b9050919050565b7f4578706f736974696f6e20636f7572616e746520646f697420657472652073755f8201527f7065726965757265206120300000000000000000000000000000000000000000602082015250565b5f611258602c83611186565b9150611263826111fe565b604082019050919050565b5f6020820190508181035f8301526112858161124c565b9050919050565b7f4e487b71000000000000000000000000000000000000000000000000000000005f52601160045260245ffd5b5f6112c382610fd1565b91506112ce83610fd1565b92508282026112dc81610fd1565b915082820484148315176112f3576112f261128c565b5b5092915050565b7f4e487b71000000000000000000000000000000000000000000000000000000005f52601260045260245ffd5b5f61133182610fd1565b915061133c83610fd1565b92508261134c5761134b6112fa565b5b828204905092915050565b7f436f6e74726570617274696520696e61637469766500000000000000000000005f82015250565b5f61138b601583611186565b915061139682611357565b602082019050919050565b5f6020820190508181035f8301526113b88161137f565b9050919050565b7f4c276578706f736974696f6e206e652070657574207061732065747265206e655f8201527f6761746976650000000000000000000000000000000000000000000000000000602082015250565b5f611419602683611186565b9150611424826113bf565b604082019050919050565b5f6020820190508181035f8301526114468161140d565b9050919050565b7f4578706f736974696f6e20636f7572616e746520696e76616c696465000000005f82015250565b5f611481601c83611186565b915061148c8261144d565b602082019050919050565b5f6020820190508181035f8301526114ae81611475565b9050919050565b7f6e276163636570746520706173206465732076616c657572206e6567617469765f8201527f6500000000000000000000000000000000000000000000000000000000000000602082015250565b5f61150f602183611186565b915061151a826114b5565b604082019050919050565b5f6020820190508181035f83015261153c81611503565b9050919050565b7f4c696d6974652064276578706f736974696f6e20696e76616c696465000000005f82015250565b5f611577601c83611186565b915061158282611543565b602082019050919050565b5f6020820190508181035f8301526115a48161156b565b9050919050565b7f436f6e747265706172746965206578697374652064656a6100000000000000005f82015250565b5f6115df601883611186565b91506115ea826115ab565b602082019050919050565b5f6020820190508181035f83015261160c816115d3565b9050919050565b7f53636f72652064652063726564697420646f6974206574726520706f736974695f8201527f6600000000000000000000000000000000000000000000000000000000000000602082015250565b5f61166d602183611186565b915061167882611613565b604082019050919050565b5f6020820190508181035f83015261169a81611661565b9050919050565b7f4c696d6974652064276578706f736974696f6e20646f6974206574726520706f5f8201527f7369746976650000000000000000000000000000000000000000000000000000602082015250565b5f6116fb602683611186565b9150611706826116a1565b604082019050919050565b5f6020820190508181035f830152611728816116ef565b9050919050565b7f526174696f20646520636f757665727475726520656c657665000000000000005f82015250565b5f611763601983611186565b915061176e8261172f565b602082019050919050565b5f6040820190508181035f83015261179081611757565b905061179f6020830184610fda565b92915050565b7f53636f72652064652072697371756520656c65766500000000000000000000005f82015250565b5f6117d9601583611186565b91506117e4826117a5565b602082019050919050565b5f6040820190508181035f830152611806816117cd565b90506118156020830184610fda565b9291505056fea26469706673582212209eff869968cc3523cf42ef92899593f2de3bd1a9c34307be972b0e4873bf071464736f6c634300081a0033",
					"opcodes": "PUSH1 0x80 PUSH1 0x40 MSTORE CALLVALUE DUP1 ISZERO PUSH1 0xE JUMPI PUSH0 DUP1 REVERT JUMPDEST POP PUSH2 0x1851 DUP1 PUSH2 0x1C PUSH0 CODECOPY PUSH0 RETURN INVALID PUSH1 0x80 PUSH1 0x40 MSTORE CALLVALUE DUP1 ISZERO PUSH2 0xF JUMPI PUSH0 DUP1 REVERT JUMPDEST POP PUSH1 0x4 CALLDATASIZE LT PUSH2 0x7B JUMPI PUSH0 CALLDATALOAD PUSH1 0xE0 SHR DUP1 PUSH4 0x5D8886C0 GT PUSH2 0x59 JUMPI DUP1 PUSH4 0x5D8886C0 EQ PUSH2 0xFB JUMPI DUP1 PUSH4 0x760B1EEE EQ PUSH2 0x117 JUMPI DUP1 PUSH4 0x8E068EB0 EQ PUSH2 0x14E JUMPI DUP1 PUSH4 0xC04DCC30 EQ PUSH2 0x17E JUMPI PUSH2 0x7B JUMP JUMPDEST DUP1 PUSH4 0xAAE162E EQ PUSH2 0x7F JUMPI DUP1 PUSH4 0x1922701E EQ PUSH2 0xAF JUMPI DUP1 PUSH4 0x2D83E6B1 EQ PUSH2 0xCB JUMPI JUMPDEST PUSH0 DUP1 REVERT JUMPDEST PUSH2 0x99 PUSH1 0x4 DUP1 CALLDATASIZE SUB DUP2 ADD SWAP1 PUSH2 0x94 SWAP2 SWAP1 PUSH2 0xFA6 JUMP JUMPDEST PUSH2 0x19A JUMP JUMPDEST PUSH1 0x40 MLOAD PUSH2 0xA6 SWAP2 SWAP1 PUSH2 0xFE9 JUMP JUMPDEST PUSH1 0x40 MLOAD DUP1 SWAP2 SUB SWAP1 RETURN JUMPDEST PUSH2 0xC9 PUSH1 0x4 DUP1 CALLDATASIZE SUB DUP2 ADD SWAP1 PUSH2 0xC4 SWAP2 SWAP1 PUSH2 0x102C JUMP JUMPDEST PUSH2 0x36F JUMP JUMPDEST STOP JUMPDEST PUSH2 0xE5 PUSH1 0x4 DUP1 CALLDATASIZE SUB DUP2 ADD SWAP1 PUSH2 0xE0 SWAP2 SWAP1 PUSH2 0xFA6 JUMP JUMPDEST PUSH2 0x536 JUMP JUMPDEST PUSH1 0x40 MLOAD PUSH2 0xF2 SWAP2 SWAP1 PUSH2 0xFE9 JUMP JUMPDEST PUSH1 0x40 MLOAD DUP1 SWAP2 SUB SWAP1 RETURN JUMPDEST PUSH2 0x115 PUSH1 0x4 DUP1 CALLDATASIZE SUB DUP2 ADD SWAP1 PUSH2 0x110 SWAP2 SWAP1 PUSH2 0x102C JUMP JUMPDEST PUSH2 0x71B JUMP JUMPDEST STOP JUMPDEST PUSH2 0x131 PUSH1 0x4 DUP1 CALLDATASIZE SUB DUP2 ADD SWAP1 PUSH2 0x12C SWAP2 SWAP1 PUSH2 0xFA6 JUMP JUMPDEST PUSH2 0x83B JUMP JUMPDEST PUSH1 0x40 MLOAD PUSH2 0x145 SWAP9 SWAP8 SWAP7 SWAP6 SWAP5 SWAP4 SWAP3 SWAP2 SWAP1 PUSH2 0x1093 JUMP JUMPDEST PUSH1 0x40 MLOAD DUP1 SWAP2 SUB SWAP1 RETURN JUMPDEST PUSH2 0x168 PUSH1 0x4 DUP1 CALLDATASIZE SUB DUP2 ADD SWAP1 PUSH2 0x163 SWAP2 SWAP1 PUSH2 0xFA6 JUMP JUMPDEST PUSH2 0x8A9 JUMP JUMPDEST PUSH1 0x40 MLOAD PUSH2 0x175 SWAP2 SWAP1 PUSH2 0xFE9 JUMP JUMPDEST PUSH1 0x40 MLOAD DUP1 SWAP2 SUB SWAP1 RETURN JUMPDEST PUSH2 0x198 PUSH1 0x4 DUP1 CALLDATASIZE SUB DUP2 ADD SWAP1 PUSH2 0x193 SWAP2 SWAP1 PUSH2 0x110F JUMP JUMPDEST PUSH2 0xA8E JUMP JUMPDEST STOP JUMPDEST PUSH0 DUP1 PUSH0 DUP1 DUP5 PUSH20 0xFFFFFFFFFFFFFFFFFFFFFFFFFFFFFFFFFFFFFFFF AND PUSH20 0xFFFFFFFFFFFFFFFFFFFFFFFFFFFFFFFFFFFFFFFF AND DUP2 MSTORE PUSH1 0x20 ADD SWAP1 DUP2 MSTORE PUSH1 0x20 ADD PUSH0 KECCAK256 PUSH1 0x40 MLOAD DUP1 PUSH2 0x100 ADD PUSH1 0x40 MSTORE SWAP1 DUP2 PUSH0 DUP3 ADD PUSH0 SWAP1 SLOAD SWAP1 PUSH2 0x100 EXP SWAP1 DIV PUSH20 0xFFFFFFFFFFFFFFFFFFFFFFFFFFFFFFFFFFFFFFFF AND PUSH20 0xFFFFFFFFFFFFFFFFFFFFFFFFFFFFFFFFFFFFFFFF AND PUSH20 0xFFFFFFFFFFFFFFFFFFFFFFFFFFFFFFFFFFFFFFFF AND DUP2 MSTORE PUSH1 0x20 ADD PUSH1 0x1 DUP3 ADD SLOAD DUP2 MSTORE PUSH1 0x20 ADD PUSH1 0x2 DUP3 ADD SLOAD DUP2 MSTORE PUSH1 0x20 ADD PUSH1 0x3 DUP3 ADD SLOAD DUP2 MSTORE PUSH1 0x20 ADD PUSH1 0x4 DUP3 ADD SLOAD DUP2 MSTORE PUSH1 0x20 ADD PUSH1 0x5 DUP3 ADD SLOAD DUP2 MSTORE PUSH1 0x20 ADD PUSH1 0x6 DUP3 ADD SLOAD DUP2 MSTORE PUSH1 0x20 ADD PUSH1 0x7 DUP3 ADD PUSH0 SWAP1 SLOAD SWAP1 PUSH2 0x100 EXP SWAP1 DIV PUSH1 0xFF AND ISZERO ISZERO ISZERO ISZERO DUP2 MSTORE POP POP SWAP1 POP PUSH0 PUSH20 0xFFFFFFFFFFFFFFFFFFFFFFFFFFFFFFFFFFFFFFFF AND DUP2 PUSH0 ADD MLOAD PUSH20 0xFFFFFFFFFFFFFFFFFFFFFFFFFFFFFFFFFFFFFFFF AND SUB PUSH2 0x301 JUMPI PUSH1 0x40 MLOAD PUSH32 0x8C379A000000000000000000000000000000000000000000000000000000000 DUP2 MSTORE PUSH1 0x4 ADD PUSH2 0x2F8 SWAP1 PUSH2 0x11E0 JUMP JUMPDEST PUSH1 0x40 MLOAD DUP1 SWAP2 SUB SWAP1 REVERT JUMPDEST PUSH0 DUP2 PUSH1 0x60 ADD MLOAD GT PUSH2 0x347 JUMPI PUSH1 0x40 MLOAD PUSH32 0x8C379A000000000000000000000000000000000000000000000000000000000 DUP2 MSTORE PUSH1 0x4 ADD PUSH2 0x33E SWAP1 PUSH2 0x126E JUMP JUMPDEST PUSH1 0x40 MLOAD DUP1 SWAP2 SUB SWAP1 REVERT JUMPDEST DUP1 PUSH1 0x60 ADD MLOAD PUSH1 0x64 DUP3 PUSH1 0x80 ADD MLOAD PUSH2 0x35D SWAP2 SWAP1 PUSH2 0x12B9 JUMP JUMPDEST PUSH2 0x367 SWAP2 SWAP1 PUSH2 0x1327 JUMP JUMPDEST SWAP2 POP POP SWAP2 SWAP1 POP JUMP JUMPDEST PUSH0 DUP1 PUSH0 DUP5 PUSH20 0xFFFFFFFFFFFFFFFFFFFFFFFFFFFFFFFFFFFFFFFF AND PUSH20 0xFFFFFFFFFFFFFFFFFFFFFFFFFFFFFFFFFFFFFFFF AND DUP2 MSTORE PUSH1 0x20 ADD SWAP1 DUP2 MSTORE PUSH1 0x20 ADD PUSH0 KECCAK256 SWAP1 POP PUSH0 PUSH20 0xFFFFFFFFFFFFFFFFFFFFFFFFFFFFFFFFFFFFFFFF AND DUP2 PUSH0 ADD PUSH0 SWAP1 SLOAD SWAP1 PUSH2 0x100 EXP SWAP1 DIV PUSH20 0xFFFFFFFFFFFFFFFFFFFFFFFFFFFFFFFFFFFFFFFF AND PUSH20 0xFFFFFFFFFFFFFFFFFFFFFFFFFFFFFFFFFFFFFFFF AND SUB PUSH2 0x43E JUMPI PUSH1 0x40 MLOAD PUSH32 0x8C379A000000000000000000000000000000000000000000000000000000000 DUP2 MSTORE PUSH1 0x4 ADD PUSH2 0x435 SWAP1 PUSH2 0x11E0 JUMP JUMPDEST PUSH1 0x40 MLOAD DUP1 SWAP2 SUB SWAP1 REVERT JUMPDEST DUP1 PUSH1 0x7 ADD PUSH0 SWAP1 SLOAD SWAP1 PUSH2 0x100 EXP SWAP1 DIV PUSH1 0xFF AND PUSH2 0x48E JUMPI PUSH1 0x40 MLOAD PUSH32 0x8C379A000000000000000000000000000000000000000000000000000000000 DUP2 MSTORE PUSH1 0x4 ADD PUSH2 0x485 SWAP1 PUSH2 0x13A1 JUMP JUMPDEST PUSH1 0x40 MLOAD DUP1 SWAP2 SUB SWAP1 REVERT JUMPDEST PUSH0 DUP3 LT ISZERO PUSH2 0x4D1 JUMPI PUSH1 0x40 MLOAD PUSH32 0x8C379A000000000000000000000000000000000000000000000000000000000 DUP2 MSTORE PUSH1 0x4 ADD PUSH2 0x4C8 SWAP1 PUSH2 0x142F JUMP JUMPDEST PUSH1 0x40 MLOAD DUP1 SWAP2 SUB SWAP1 REVERT JUMPDEST DUP2 DUP2 PUSH1 0x3 ADD DUP2 SWAP1 SSTORE POP DUP3 PUSH20 0xFFFFFFFFFFFFFFFFFFFFFFFFFFFFFFFFFFFFFFFF AND PUSH32 0xA6B582F9FA77F5EB299250871D3B51C8FF3655DD554DA3F9ABB294B3E92F8E1F DUP4 PUSH1 0x40 MLOAD PUSH2 0x520 SWAP2 SWAP1 PUSH2 0xFE9 JUMP JUMPDEST PUSH1 0x40 MLOAD DUP1 SWAP2 SUB SWAP1 LOG2 PUSH2 0x531 DUP4 PUSH2 0xD63 JUMP JUMPDEST POP POP POP JUMP JUMPDEST PUSH0 DUP1 PUSH0 DUP1 DUP5 PUSH20 0xFFFFFFFFFFFFFFFFFFFFFFFFFFFFFFFFFFFFFFFF AND PUSH20 0xFFFFFFFFFFFFFFFFFFFFFFFFFFFFFFFFFFFFFFFF AND DUP2 MSTORE PUSH1 0x20 ADD SWAP1 DUP2 MSTORE PUSH1 0x20 ADD PUSH0 KECCAK256 PUSH1 0x40 MLOAD DUP1 PUSH2 0x100 ADD PUSH1 0x40 MSTORE SWAP1 DUP2 PUSH0 DUP3 ADD PUSH0 SWAP1 SLOAD SWAP1 PUSH2 0x100 EXP SWAP1 DIV PUSH20 0xFFFFFFFFFFFFFFFFFFFFFFFFFFFFFFFFFFFFFFFF AND PUSH20 0xFFFFFFFFFFFFFFFFFFFFFFFFFFFFFFFFFFFFFFFF AND PUSH20 0xFFFFFFFFFFFFFFFFFFFFFFFFFFFFFFFFFFFFFFFF AND DUP2 MSTORE PUSH1 0x20 ADD PUSH1 0x1 DUP3 ADD SLOAD DUP2 MSTORE PUSH1 0x20 ADD PUSH1 0x2 DUP3 ADD SLOAD DUP2 MSTORE PUSH1 0x20 ADD PUSH1 0x3 DUP3 ADD SLOAD DUP2 MSTORE PUSH1 0x20 ADD PUSH1 0x4 DUP3 ADD SLOAD DUP2 MSTORE PUSH1 0x20 ADD PUSH1 0x5 DUP3 ADD SLOAD DUP2 MSTORE PUSH1 0x20 ADD PUSH1 0x6 DUP3 ADD SLOAD DUP2 MSTORE PUSH1 0x20 ADD PUSH1 0x7 DUP3 ADD PUSH0 SWAP1 SLOAD SWAP1 PUSH2 0x100 EXP SWAP1 DIV PUSH1 0xFF AND ISZERO ISZERO ISZERO ISZERO DUP2 MSTORE POP POP SWAP1 POP PUSH0 PUSH20 0xFFFFFFFFFFFFFFFFFFFFFFFFFFFFFFFFFFFFFFFF AND DUP2 PUSH0 ADD MLOAD PUSH20 0xFFFFFFFFFFFFFFFFFFFFFFFFFFFFFFFFFFFFFFFF AND SUB PUSH2 0x69D JUMPI PUSH1 0x40 MLOAD PUSH32 0x8C379A000000000000000000000000000000000000000000000000000000000 DUP2 MSTORE PUSH1 0x4 ADD PUSH2 0x694 SWAP1 PUSH2 0x11E0 JUMP JUMPDEST PUSH1 0x40 MLOAD DUP1 SWAP2 SUB SWAP1 REVERT JUMPDEST PUSH0 DUP2 PUSH1 0x60 ADD MLOAD GT PUSH2 0x6E3 JUMPI PUSH1 0x40 MLOAD PUSH32 0x8C379A000000000000000000000000000000000000000000000000000000000 DUP2 MSTORE PUSH1 0x4 ADD PUSH2 0x6DA SWAP1 PUSH2 0x1497 JUMP JUMPDEST PUSH1 0x40 MLOAD DUP1 SWAP2 SUB SWAP1 REVERT JUMPDEST PUSH2 0x2710 DUP2 PUSH1 0xC0 ADD MLOAD DUP3 PUSH1 0xA0 ADD MLOAD DUP4 PUSH1 0x60 ADD MLOAD PUSH2 0x6FF SWAP2 SWAP1 PUSH2 0x12B9 JUMP JUMPDEST PUSH2 0x709 SWAP2 SWAP1 PUSH2 0x12B9 JUMP JUMPDEST PUSH2 0x713 SWAP2 SWAP1 PUSH2 0x1327 JUMP JUMPDEST SWAP2 POP POP SWAP2 SWAP1 POP JUMP JUMPDEST PUSH0 DUP1 PUSH0 DUP5 PUSH20 0xFFFFFFFFFFFFFFFFFFFFFFFFFFFFFFFFFFFFFFFF AND PUSH20 0xFFFFFFFFFFFFFFFFFFFFFFFFFFFFFFFFFFFFFFFF AND DUP2 MSTORE PUSH1 0x20 ADD SWAP1 DUP2 MSTORE PUSH1 0x20 ADD PUSH0 KECCAK256 SWAP1 POP PUSH0 PUSH20 0xFFFFFFFFFFFFFFFFFFFFFFFFFFFFFFFFFFFFFFFF AND DUP2 PUSH0 ADD PUSH0 SWAP1 SLOAD SWAP1 PUSH2 0x100 EXP SWAP1 DIV PUSH20 0xFFFFFFFFFFFFFFFFFFFFFFFFFFFFFFFFFFFFFFFF AND PUSH20 0xFFFFFFFFFFFFFFFFFFFFFFFFFFFFFFFFFFFFFFFF AND SUB PUSH2 0x7EA JUMPI PUSH1 0x40 MLOAD PUSH32 0x8C379A000000000000000000000000000000000000000000000000000000000 DUP2 MSTORE PUSH1 0x4 ADD PUSH2 0x7E1 SWAP1 PUSH2 0x11E0 JUMP JUMPDEST PUSH1 0x40 MLOAD DUP1 SWAP2 SUB SWAP1 REVERT JUMPDEST PUSH0 DUP3 LT ISZERO PUSH2 0x82D JUMPI PUSH1 0x40 MLOAD PUSH32 0x8C379A000000000000000000000000000000000000000000000000000000000 DUP2 MSTORE PUSH1 0x4 ADD PUSH2 0x824 SWAP1 PUSH2 0x1525 JUMP JUMPDEST PUSH1 0x40 MLOAD DUP1 SWAP2 SUB SWAP1 REVERT JUMPDEST DUP2 DUP2 PUSH1 0x4 ADD DUP2 SWAP1 SSTORE POP POP POP POP JUMP JUMPDEST PUSH0 PUSH1 0x20 MSTORE DUP1 PUSH0 MSTORE PUSH1 0x40 PUSH0 KECCAK256 PUSH0 SWAP2 POP SWAP1 POP DUP1 PUSH0 ADD PUSH0 SWAP1 SLOAD SWAP1 PUSH2 0x100 EXP SWAP1 DIV PUSH20 0xFFFFFFFFFFFFFFFFFFFFFFFFFFFFFFFFFFFFFFFF AND SWAP1 DUP1 PUSH1 0x1 ADD SLOAD SWAP1 DUP1 PUSH1 0x2 ADD SLOAD SWAP1 DUP1 PUSH1 0x3 ADD SLOAD SWAP1 DUP1 PUSH1 0x4 ADD SLOAD SWAP1 DUP1 PUSH1 0x5 ADD SLOAD SWAP1 DUP1 PUSH1 0x6 ADD SLOAD SWAP1 DUP1 PUSH1 0x7 ADD PUSH0 SWAP1 SLOAD SWAP1 PUSH2 0x100 EXP SWAP1 DIV PUSH1 0xFF AND SWAP1 POP DUP9 JUMP JUMPDEST PUSH0 DUP1 PUSH0 DUP1 DUP5 PUSH20 0xFFFFFFFFFFFFFFFFFFFFFFFFFFFFFFFFFFFFFFFF AND PUSH20 0xFFFFFFFFFFFFFFFFFFFFFFFFFFFFFFFFFFFFFFFF AND DUP2 MSTORE PUSH1 0x20 ADD SWAP1 DUP2 MSTORE PUSH1 0x20 ADD PUSH0 KECCAK256 PUSH1 0x40 MLOAD DUP1 PUSH2 0x100 ADD PUSH1 0x40 MSTORE SWAP1 DUP2 PUSH0 DUP3 ADD PUSH0 SWAP1 SLOAD SWAP1 PUSH2 0x100 EXP SWAP1 DIV PUSH20 0xFFFFFFFFFFFFFFFFFFFFFFFFFFFFFFFFFFFFFFFF AND PUSH20 0xFFFFFFFFFFFFFFFFFFFFFFFFFFFFFFFFFFFFFFFF AND PUSH20 0xFFFFFFFFFFFFFFFFFFFFFFFFFFFFFFFFFFFFFFFF AND DUP2 MSTORE PUSH1 0x20 ADD PUSH1 0x1 DUP3 ADD SLOAD DUP2 MSTORE PUSH1 0x20 ADD PUSH1 0x2 DUP3 ADD SLOAD DUP2 MSTORE PUSH1 0x20 ADD PUSH1 0x3 DUP3 ADD SLOAD DUP2 MSTORE PUSH1 0x20 ADD PUSH1 0x4 DUP3 ADD SLOAD DUP2 MSTORE PUSH1 0x20 ADD PUSH1 0x5 DUP3 ADD SLOAD DUP2 MSTORE PUSH1 0x20 ADD PUSH1 0x6 DUP3 ADD SLOAD DUP2 MSTORE PUSH1 0x20 ADD PUSH1 0x7 DUP3 ADD PUSH0 SWAP1 SLOAD SWAP1 PUSH2 0x100 EXP SWAP1 DIV PUSH1 0xFF AND ISZERO ISZERO ISZERO ISZERO DUP2 MSTORE POP POP SWAP1 POP PUSH0 PUSH20 0xFFFFFFFFFFFFFFFFFFFFFFFFFFFFFFFFFFFFFFFF AND DUP2 PUSH0 ADD MLOAD PUSH20 0xFFFFFFFFFFFFFFFFFFFFFFFFFFFFFFFFFFFFFFFF AND SUB PUSH2 0xA10 JUMPI PUSH1 0x40 MLOAD PUSH32 0x8C379A000000000000000000000000000000000000000000000000000000000 DUP2 MSTORE PUSH1 0x4 ADD PUSH2 0xA07 SWAP1 PUSH2 0x11E0 JUMP JUMPDEST PUSH1 0x40 MLOAD DUP1 SWAP2 SUB SWAP1 REVERT JUMPDEST PUSH0 DUP2 PUSH1 0x40 ADD MLOAD GT PUSH2 0xA56 JUMPI PUSH1 0x40 MLOAD PUSH32 0x8C379A000000000000000000000000000000000000000000000000000000000 DUP2 MSTORE PUSH1 0x4 ADD PUSH2 0xA4D SWAP1 PUSH2 0x158D JUMP JUMPDEST PUSH1 0x40 MLOAD DUP1 SWAP2 SUB SWAP1 REVERT JUMPDEST DUP1 PUSH1 0x20 ADD MLOAD DUP2 PUSH1 0x40 ADD MLOAD PUSH2 0xA6A SWAP2 SWAP1 PUSH2 0x12B9 JUMP JUMPDEST PUSH2 0x2710 DUP3 PUSH1 0x60 ADD MLOAD PUSH2 0xA7C SWAP2 SWAP1 PUSH2 0x12B9 JUMP JUMPDEST PUSH2 0xA86 SWAP2 SWAP1 PUSH2 0x1327 JUMP JUMPDEST SWAP2 POP POP SWAP2 SWAP1 POP JUMP JUMPDEST PUSH0 PUSH20 0xFFFFFFFFFFFFFFFFFFFFFFFFFFFFFFFFFFFFFFFF AND PUSH0 DUP1 DUP8 PUSH20 0xFFFFFFFFFFFFFFFFFFFFFFFFFFFFFFFFFFFFFFFF AND PUSH20 0xFFFFFFFFFFFFFFFFFFFFFFFFFFFFFFFFFFFFFFFF AND DUP2 MSTORE PUSH1 0x20 ADD SWAP1 DUP2 MSTORE PUSH1 0x20 ADD PUSH0 KECCAK256 PUSH0 ADD PUSH0 SWAP1 SLOAD SWAP1 PUSH2 0x100 EXP SWAP1 DIV PUSH20 0xFFFFFFFFFFFFFFFFFFFFFFFFFFFFFFFFFFFFFFFF AND PUSH20 0xFFFFFFFFFFFFFFFFFFFFFFFFFFFFFFFFFFFFFFFF AND EQ PUSH2 0xB59 JUMPI PUSH1 0x40 MLOAD PUSH32 0x8C379A000000000000000000000000000000000000000000000000000000000 DUP2 MSTORE PUSH1 0x4 ADD PUSH2 0xB50 SWAP1 PUSH2 0x15F5 JUMP JUMPDEST PUSH1 0x40 MLOAD DUP1 SWAP2 SUB SWAP1 REVERT JUMPDEST PUSH0 DUP5 GT PUSH2 0xB9B JUMPI PUSH1 0x40 MLOAD PUSH32 0x8C379A000000000000000000000000000000000000000000000000000000000 DUP2 MSTORE PUSH1 0x4 ADD PUSH2 0xB92 SWAP1 PUSH2 0x1683 JUMP JUMPDEST PUSH1 0x40 MLOAD DUP1 SWAP2 SUB SWAP1 REVERT JUMPDEST PUSH0 DUP4 GT PUSH2 0xBDD JUMPI PUSH1 0x40 MLOAD PUSH32 0x8C379A000000000000000000000000000000000000000000000000000000000 DUP2 MSTORE PUSH1 0x4 ADD PUSH2 0xBD4 SWAP1 PUSH2 0x1711 JUMP JUMPDEST PUSH1 0x40 MLOAD DUP1 SWAP2 SUB SWAP1 REVERT JUMPDEST PUSH1 0x40 MLOAD DUP1 PUSH2 0x100 ADD PUSH1 0x40 MSTORE DUP1 DUP7 PUSH20 0xFFFFFFFFFFFFFFFFFFFFFFFFFFFFFFFFFFFFFFFF AND DUP2 MSTORE PUSH1 0x20 ADD DUP6 DUP2 MSTORE PUSH1 0x20 ADD DUP5 DUP2 MSTORE PUSH1 0x20 ADD PUSH0 DUP2 MSTORE PUSH1 0x20 ADD PUSH0 DUP2 MSTORE PUSH1 0x20 ADD DUP4 DUP2 MSTORE PUSH1 0x20 ADD DUP3 DUP2 MSTORE PUSH1 0x20 ADD PUSH1 0x1 ISZERO ISZERO DUP2 MSTORE POP PUSH0 DUP1 DUP8 PUSH20 0xFFFFFFFFFFFFFFFFFFFFFFFFFFFFFFFFFFFFFFFF AND PUSH20 0xFFFFFFFFFFFFFFFFFFFFFFFFFFFFFFFFFFFFFFFF AND DUP2 MSTORE PUSH1 0x20 ADD SWAP1 DUP2 MSTORE PUSH1 0x20 ADD PUSH0 KECCAK256 PUSH0 DUP3 ADD MLOAD DUP2 PUSH0 ADD PUSH0 PUSH2 0x100 EXP DUP2 SLOAD DUP2 PUSH20 0xFFFFFFFFFFFFFFFFFFFFFFFFFFFFFFFFFFFFFFFF MUL NOT AND SWAP1 DUP4 PUSH20 0xFFFFFFFFFFFFFFFFFFFFFFFFFFFFFFFFFFFFFFFF AND MUL OR SWAP1 SSTORE POP PUSH1 0x20 DUP3 ADD MLOAD DUP2 PUSH1 0x1 ADD SSTORE PUSH1 0x40 DUP3 ADD MLOAD DUP2 PUSH1 0x2 ADD SSTORE PUSH1 0x60 DUP3 ADD MLOAD DUP2 PUSH1 0x3 ADD SSTORE PUSH1 0x80 DUP3 ADD MLOAD DUP2 PUSH1 0x4 ADD SSTORE PUSH1 0xA0 DUP3 ADD MLOAD DUP2 PUSH1 0x5 ADD SSTORE PUSH1 0xC0 DUP3 ADD MLOAD DUP2 PUSH1 0x6 ADD SSTORE PUSH1 0xE0 DUP3 ADD MLOAD DUP2 PUSH1 0x7 ADD PUSH0 PUSH2 0x100 EXP DUP2 SLOAD DUP2 PUSH1 0xFF MUL NOT AND SWAP1 DUP4 ISZERO ISZERO MUL OR SWAP1 SSTORE POP SWAP1 POP POP DUP5 PUSH20 0xFFFFFFFFFFFFFFFFFFFFFFFFFFFFFFFFFFFFFFFF AND PUSH32 0x747A12C5B34ABE212A3A26B67B9A8EDF3CEB6BD68207C9F6C11A5161432E1614 DUP5 PUSH1 0x40 MLOAD PUSH2 0xD54 SWAP2 SWAP1 PUSH2 0xFE9 JUMP JUMPDEST PUSH1 0x40 MLOAD DUP1 SWAP2 SUB SWAP1 LOG2 POP POP POP POP POP JUMP JUMPDEST PUSH0 DUP1 PUSH0 DUP4 PUSH20 0xFFFFFFFFFFFFFFFFFFFFFFFFFFFFFFFFFFFFFFFF AND PUSH20 0xFFFFFFFFFFFFFFFFFFFFFFFFFFFFFFFFFFFFFFFF AND DUP2 MSTORE PUSH1 0x20 ADD SWAP1 DUP2 MSTORE PUSH1 0x20 ADD PUSH0 KECCAK256 SWAP1 POP PUSH0 DUP2 PUSH1 0x2 ADD SLOAD PUSH1 0x64 DUP4 PUSH1 0x3 ADD SLOAD PUSH2 0xDB9 SWAP2 SWAP1 PUSH2 0x12B9 JUMP JUMPDEST PUSH2 0xDC3 SWAP2 SWAP1 PUSH2 0x1327 JUMP JUMPDEST SWAP1 POP DUP2 PUSH1 0x2 ADD SLOAD DUP3 PUSH1 0x3 ADD SLOAD GT ISZERO PUSH2 0xE86 JUMPI PUSH0 DUP3 PUSH1 0x7 ADD PUSH0 PUSH2 0x100 EXP DUP2 SLOAD DUP2 PUSH1 0xFF MUL NOT AND SWAP1 DUP4 ISZERO ISZERO MUL OR SWAP1 SSTORE POP DUP3 PUSH20 0xFFFFFFFFFFFFFFFFFFFFFFFFFFFFFFFFFFFFFFFF AND PUSH32 0x74B737E83B985A0AFA446389D70CCCAB99D200A0A63101114130A2A2DFBBA912 DUP4 PUSH1 0x3 ADD SLOAD PUSH1 0x40 MLOAD PUSH2 0xE3A SWAP2 SWAP1 PUSH2 0xFE9 JUMP JUMPDEST PUSH1 0x40 MLOAD DUP1 SWAP2 SUB SWAP1 LOG2 DUP3 PUSH20 0xFFFFFFFFFFFFFFFFFFFFFFFFFFFFFFFFFFFFFFFF AND PUSH32 0x9828DCBAA179FB6DF1860C283B0038A99295505D3C63DAB7E0F85DDAE424E2F9 PUSH1 0x40 MLOAD PUSH1 0x40 MLOAD DUP1 SWAP2 SUB SWAP1 LOG2 JUMPDEST PUSH1 0x64 DUP2 GT ISZERO PUSH2 0xEDE JUMPI DUP3 PUSH20 0xFFFFFFFFFFFFFFFFFFFFFFFFFFFFFFFFFFFFFFFF AND PUSH32 0x6D9ECA91A729A6CF57975885A463AC2503159B33BEA61598036F7A607F497863 DUP3 PUSH1 0x40 MLOAD PUSH2 0xED5 SWAP2 SWAP1 PUSH2 0x1779 JUMP JUMPDEST PUSH1 0x40 MLOAD DUP1 SWAP2 SUB SWAP1 LOG2 JUMPDEST PUSH0 PUSH2 0xEE8 DUP5 PUSH2 0x8A9 JUMP JUMPDEST SWAP1 POP PUSH1 0x64 DUP2 GT ISZERO PUSH2 0xF42 JUMPI DUP4 PUSH20 0xFFFFFFFFFFFFFFFFFFFFFFFFFFFFFFFFFFFFFFFF AND PUSH32 0x6D9ECA91A729A6CF57975885A463AC2503159B33BEA61598036F7A607F497863 DUP3 PUSH1 0x40 MLOAD PUSH2 0xF39 SWAP2 SWAP1 PUSH2 0x17EF JUMP JUMPDEST PUSH1 0x40 MLOAD DUP1 SWAP2 SUB SWAP1 LOG2 JUMPDEST POP POP POP POP JUMP JUMPDEST PUSH0 DUP1 REVERT JUMPDEST PUSH0 PUSH20 0xFFFFFFFFFFFFFFFFFFFFFFFFFFFFFFFFFFFFFFFF DUP3 AND SWAP1 POP SWAP2 SWAP1 POP JUMP JUMPDEST PUSH0 PUSH2 0xF75 DUP3 PUSH2 0xF4C JUMP JUMPDEST SWAP1 POP SWAP2 SWAP1 POP JUMP JUMPDEST PUSH2 0xF85 DUP2 PUSH2 0xF6B JUMP JUMPDEST DUP2 EQ PUSH2 0xF8F JUMPI PUSH0 DUP1 REVERT JUMPDEST POP JUMP JUMPDEST PUSH0 DUP2 CALLDATALOAD SWAP1 POP PUSH2 0xFA0 DUP2 PUSH2 0xF7C JUMP JUMPDEST SWAP3 SWAP2 POP POP JUMP JUMPDEST PUSH0 PUSH1 0x20 DUP3 DUP5 SUB SLT ISZERO PUSH2 0xFBB JUMPI PUSH2 0xFBA PUSH2 0xF48 JUMP JUMPDEST JUMPDEST PUSH0 PUSH2 0xFC8 DUP5 DUP3 DUP6 ADD PUSH2 0xF92 JUMP JUMPDEST SWAP2 POP POP SWAP3 SWAP2 POP POP JUMP JUMPDEST PUSH0 DUP2 SWAP1 POP SWAP2 SWAP1 POP JUMP JUMPDEST PUSH2 0xFE3 DUP2 PUSH2 0xFD1 JUMP JUMPDEST DUP3 MSTORE POP POP JUMP JUMPDEST PUSH0 PUSH1 0x20 DUP3 ADD SWAP1 POP PUSH2 0xFFC PUSH0 DUP4 ADD DUP5 PUSH2 0xFDA JUMP JUMPDEST SWAP3 SWAP2 POP POP JUMP JUMPDEST PUSH2 0x100B DUP2 PUSH2 0xFD1 JUMP JUMPDEST DUP2 EQ PUSH2 0x1015 JUMPI PUSH0 DUP1 REVERT JUMPDEST POP JUMP JUMPDEST PUSH0 DUP2 CALLDATALOAD SWAP1 POP PUSH2 0x1026 DUP2 PUSH2 0x1002 JUMP JUMPDEST SWAP3 SWAP2 POP POP JUMP JUMPDEST PUSH0 DUP1 PUSH1 0x40 DUP4 DUP6 SUB SLT ISZERO PUSH2 0x1042 JUMPI PUSH2 0x1041 PUSH2 0xF48 JUMP JUMPDEST JUMPDEST PUSH0 PUSH2 0x104F DUP6 DUP3 DUP7 ADD PUSH2 0xF92 JUMP JUMPDEST SWAP3 POP POP PUSH1 0x20 PUSH2 0x1060 DUP6 DUP3 DUP7 ADD PUSH2 0x1018 JUMP JUMPDEST SWAP2 POP POP SWAP3 POP SWAP3 SWAP1 POP JUMP JUMPDEST PUSH2 0x1073 DUP2 PUSH2 0xF6B JUMP JUMPDEST DUP3 MSTORE POP POP JUMP JUMPDEST PUSH0 DUP2 ISZERO ISZERO SWAP1 POP SWAP2 SWAP1 POP JUMP JUMPDEST PUSH2 0x108D DUP2 PUSH2 0x1079 JUMP JUMPDEST DUP3 MSTORE POP POP JUMP JUMPDEST PUSH0 PUSH2 0x100 DUP3 ADD SWAP1 POP PUSH2 0x10A7 PUSH0 DUP4 ADD DUP12 PUSH2 0x106A JUMP JUMPDEST PUSH2 0x10B4 PUSH1 0x20 DUP4 ADD DUP11 PUSH2 0xFDA JUMP JUMPDEST PUSH2 0x10C1 PUSH1 0x40 DUP4 ADD DUP10 PUSH2 0xFDA JUMP JUMPDEST PUSH2 0x10CE PUSH1 0x60 DUP4 ADD DUP9 PUSH2 0xFDA JUMP JUMPDEST PUSH2 0x10DB PUSH1 0x80 DUP4 ADD DUP8 PUSH2 0xFDA JUMP JUMPDEST PUSH2 0x10E8 PUSH1 0xA0 DUP4 ADD DUP7 PUSH2 0xFDA JUMP JUMPDEST PUSH2 0x10F5 PUSH1 0xC0 DUP4 ADD DUP6 PUSH2 0xFDA JUMP JUMPDEST PUSH2 0x1102 PUSH1 0xE0 DUP4 ADD DUP5 PUSH2 0x1084 JUMP JUMPDEST SWAP10 SWAP9 POP POP POP POP POP POP POP POP POP JUMP JUMPDEST PUSH0 DUP1 PUSH0 DUP1 PUSH0 PUSH1 0xA0 DUP7 DUP9 SUB SLT ISZERO PUSH2 0x1128 JUMPI PUSH2 0x1127 PUSH2 0xF48 JUMP JUMPDEST JUMPDEST PUSH0 PUSH2 0x1135 DUP9 DUP3 DUP10 ADD PUSH2 0xF92 JUMP JUMPDEST SWAP6 POP POP PUSH1 0x20 PUSH2 0x1146 DUP9 DUP3 DUP10 ADD PUSH2 0x1018 JUMP JUMPDEST SWAP5 POP POP PUSH1 0x40 PUSH2 0x1157 DUP9 DUP3 DUP10 ADD PUSH2 0x1018 JUMP JUMPDEST SWAP4 POP POP PUSH1 0x60 PUSH2 0x1168 DUP9 DUP3 DUP10 ADD PUSH2 0x1018 JUMP JUMPDEST SWAP3 POP POP PUSH1 0x80 PUSH2 0x1179 DUP9 DUP3 DUP10 ADD PUSH2 0x1018 JUMP JUMPDEST SWAP2 POP POP SWAP3 SWAP6 POP SWAP3 SWAP6 SWAP1 SWAP4 POP JUMP JUMPDEST PUSH0 DUP3 DUP3 MSTORE PUSH1 0x20 DUP3 ADD SWAP1 POP SWAP3 SWAP2 POP POP JUMP JUMPDEST PUSH32 0x436F6E74726570617274696520696E74726F757661626C650000000000000000 PUSH0 DUP3 ADD MSTORE POP JUMP JUMPDEST PUSH0 PUSH2 0x11CA PUSH1 0x18 DUP4 PUSH2 0x1186 JUMP JUMPDEST SWAP2 POP PUSH2 0x11D5 DUP3 PUSH2 0x1196 JUMP JUMPDEST PUSH1 0x20 DUP3 ADD SWAP1 POP SWAP2 SWAP1 POP JUMP JUMPDEST PUSH0 PUSH1 0x20 DUP3 ADD SWAP1 POP DUP2 DUP2 SUB PUSH0 DUP4 ADD MSTORE PUSH2 0x11F7 DUP2 PUSH2 0x11BE JUMP JUMPDEST SWAP1 POP SWAP2 SWAP1 POP JUMP JUMPDEST PUSH32 0x4578706F736974696F6E20636F7572616E746520646F69742065747265207375 PUSH0 DUP3 ADD MSTORE PUSH32 0x7065726965757265206120300000000000000000000000000000000000000000 PUSH1 0x20 DUP3 ADD MSTORE POP JUMP JUMPDEST PUSH0 PUSH2 0x1258 PUSH1 0x2C DUP4 PUSH2 0x1186 JUMP JUMPDEST SWAP2 POP PUSH2 0x1263 DUP3 PUSH2 0x11FE JUMP JUMPDEST PUSH1 0x40 DUP3 ADD SWAP1 POP SWAP2 SWAP1 POP JUMP JUMPDEST PUSH0 PUSH1 0x20 DUP3 ADD SWAP1 POP DUP2 DUP2 SUB PUSH0 DUP4 ADD MSTORE PUSH2 0x1285 DUP2 PUSH2 0x124C JUMP JUMPDEST SWAP1 POP SWAP2 SWAP1 POP JUMP JUMPDEST PUSH32 0x4E487B7100000000000000000000000000000000000000000000000000000000 PUSH0 MSTORE PUSH1 0x11 PUSH1 0x4 MSTORE PUSH1 0x24 PUSH0 REVERT JUMPDEST PUSH0 PUSH2 0x12C3 DUP3 PUSH2 0xFD1 JUMP JUMPDEST SWAP2 POP PUSH2 0x12CE DUP4 PUSH2 0xFD1 JUMP JUMPDEST SWAP3 POP DUP3 DUP3 MUL PUSH2 0x12DC DUP2 PUSH2 0xFD1 JUMP JUMPDEST SWAP2 POP DUP3 DUP3 DIV DUP5 EQ DUP4 ISZERO OR PUSH2 0x12F3 JUMPI PUSH2 0x12F2 PUSH2 0x128C JUMP JUMPDEST JUMPDEST POP SWAP3 SWAP2 POP POP JUMP JUMPDEST PUSH32 0x4E487B7100000000000000000000000000000000000000000000000000000000 PUSH0 MSTORE PUSH1 0x12 PUSH1 0x4 MSTORE PUSH1 0x24 PUSH0 REVERT JUMPDEST PUSH0 PUSH2 0x1331 DUP3 PUSH2 0xFD1 JUMP JUMPDEST SWAP2 POP PUSH2 0x133C DUP4 PUSH2 0xFD1 JUMP JUMPDEST SWAP3 POP DUP3 PUSH2 0x134C JUMPI PUSH2 0x134B PUSH2 0x12FA JUMP JUMPDEST JUMPDEST DUP3 DUP3 DIV SWAP1 POP SWAP3 SWAP2 POP POP JUMP JUMPDEST PUSH32 0x436F6E74726570617274696520696E6163746976650000000000000000000000 PUSH0 DUP3 ADD MSTORE POP JUMP JUMPDEST PUSH0 PUSH2 0x138B PUSH1 0x15 DUP4 PUSH2 0x1186 JUMP JUMPDEST SWAP2 POP PUSH2 0x1396 DUP3 PUSH2 0x1357 JUMP JUMPDEST PUSH1 0x20 DUP3 ADD SWAP1 POP SWAP2 SWAP1 POP JUMP JUMPDEST PUSH0 PUSH1 0x20 DUP3 ADD SWAP1 POP DUP2 DUP2 SUB PUSH0 DUP4 ADD MSTORE PUSH2 0x13B8 DUP2 PUSH2 0x137F JUMP JUMPDEST SWAP1 POP SWAP2 SWAP1 POP JUMP JUMPDEST PUSH32 0x4C276578706F736974696F6E206E652070657574207061732065747265206E65 PUSH0 DUP3 ADD MSTORE PUSH32 0x6761746976650000000000000000000000000000000000000000000000000000 PUSH1 0x20 DUP3 ADD MSTORE POP JUMP JUMPDEST PUSH0 PUSH2 0x1419 PUSH1 0x26 DUP4 PUSH2 0x1186 JUMP JUMPDEST SWAP2 POP PUSH2 0x1424 DUP3 PUSH2 0x13BF JUMP JUMPDEST PUSH1 0x40 DUP3 ADD SWAP1 POP SWAP2 SWAP1 POP JUMP JUMPDEST PUSH0 PUSH1 0x20 DUP3 ADD SWAP1 POP DUP2 DUP2 SUB PUSH0 DUP4 ADD MSTORE PUSH2 0x1446 DUP2 PUSH2 0x140D JUMP JUMPDEST SWAP1 POP SWAP2 SWAP1 POP JUMP JUMPDEST PUSH32 0x4578706F736974696F6E20636F7572616E746520696E76616C69646500000000 PUSH0 DUP3 ADD MSTORE POP JUMP JUMPDEST PUSH0 PUSH2 0x1481 PUSH1 0x1C DUP4 PUSH2 0x1186 JUMP JUMPDEST SWAP2 POP PUSH2 0x148C DUP3 PUSH2 0x144D JUMP JUMPDEST PUSH1 0x20 DUP3 ADD SWAP1 POP SWAP2 SWAP1 POP JUMP JUMPDEST PUSH0 PUSH1 0x20 DUP3 ADD SWAP1 POP DUP2 DUP2 SUB PUSH0 DUP4 ADD MSTORE PUSH2 0x14AE DUP2 PUSH2 0x1475 JUMP JUMPDEST SWAP1 POP SWAP2 SWAP1 POP JUMP JUMPDEST PUSH32 0x6E276163636570746520706173206465732076616C657572206E656761746976 PUSH0 DUP3 ADD MSTORE PUSH32 0x6500000000000000000000000000000000000000000000000000000000000000 PUSH1 0x20 DUP3 ADD MSTORE POP JUMP JUMPDEST PUSH0 PUSH2 0x150F PUSH1 0x21 DUP4 PUSH2 0x1186 JUMP JUMPDEST SWAP2 POP PUSH2 0x151A DUP3 PUSH2 0x14B5 JUMP JUMPDEST PUSH1 0x40 DUP3 ADD SWAP1 POP SWAP2 SWAP1 POP JUMP JUMPDEST PUSH0 PUSH1 0x20 DUP3 ADD SWAP1 POP DUP2 DUP2 SUB PUSH0 DUP4 ADD MSTORE PUSH2 0x153C DUP2 PUSH2 0x1503 JUMP JUMPDEST SWAP1 POP SWAP2 SWAP1 POP JUMP JUMPDEST PUSH32 0x4C696D6974652064276578706F736974696F6E20696E76616C69646500000000 PUSH0 DUP3 ADD MSTORE POP JUMP JUMPDEST PUSH0 PUSH2 0x1577 PUSH1 0x1C DUP4 PUSH2 0x1186 JUMP JUMPDEST SWAP2 POP PUSH2 0x1582 DUP3 PUSH2 0x1543 JUMP JUMPDEST PUSH1 0x20 DUP3 ADD SWAP1 POP SWAP2 SWAP1 POP JUMP JUMPDEST PUSH0 PUSH1 0x20 DUP3 ADD SWAP1 POP DUP2 DUP2 SUB PUSH0 DUP4 ADD MSTORE PUSH2 0x15A4 DUP2 PUSH2 0x156B JUMP JUMPDEST SWAP1 POP SWAP2 SWAP1 POP JUMP JUMPDEST PUSH32 0x436F6E747265706172746965206578697374652064656A610000000000000000 PUSH0 DUP3 ADD MSTORE POP JUMP JUMPDEST PUSH0 PUSH2 0x15DF PUSH1 0x18 DUP4 PUSH2 0x1186 JUMP JUMPDEST SWAP2 POP PUSH2 0x15EA DUP3 PUSH2 0x15AB JUMP JUMPDEST PUSH1 0x20 DUP3 ADD SWAP1 POP SWAP2 SWAP1 POP JUMP JUMPDEST PUSH0 PUSH1 0x20 DUP3 ADD SWAP1 POP DUP2 DUP2 SUB PUSH0 DUP4 ADD MSTORE PUSH2 0x160C DUP2 PUSH2 0x15D3 JUMP JUMPDEST SWAP1 POP SWAP2 SWAP1 POP JUMP JUMPDEST PUSH32 0x53636F72652064652063726564697420646F6974206574726520706F73697469 PUSH0 DUP3 ADD MSTORE PUSH32 0x6600000000000000000000000000000000000000000000000000000000000000 PUSH1 0x20 DUP3 ADD MSTORE POP JUMP JUMPDEST PUSH0 PUSH2 0x166D PUSH1 0x21 DUP4 PUSH2 0x1186 JUMP JUMPDEST SWAP2 POP PUSH2 0x1678 DUP3 PUSH2 0x1613 JUMP JUMPDEST PUSH1 0x40 DUP3 ADD SWAP1 POP SWAP2 SWAP1 POP JUMP JUMPDEST PUSH0 PUSH1 0x20 DUP3 ADD SWAP1 POP DUP2 DUP2 SUB PUSH0 DUP4 ADD MSTORE PUSH2 0x169A DUP2 PUSH2 0x1661 JUMP JUMPDEST SWAP1 POP SWAP2 SWAP1 POP JUMP JUMPDEST PUSH32 0x4C696D6974652064276578706F736974696F6E20646F6974206574726520706F PUSH0 DUP3 ADD MSTORE PUSH32 0x7369746976650000000000000000000000000000000000000000000000000000 PUSH1 0x20 DUP3 ADD MSTORE POP JUMP JUMPDEST PUSH0 PUSH2 0x16FB PUSH1 0x26 DUP4 PUSH2 0x1186 JUMP JUMPDEST SWAP2 POP PUSH2 0x1706 DUP3 PUSH2 0x16A1 JUMP JUMPDEST PUSH1 0x40 DUP3 ADD SWAP1 POP SWAP2 SWAP1 POP JUMP JUMPDEST PUSH0 PUSH1 0x20 DUP3 ADD SWAP1 POP DUP2 DUP2 SUB PUSH0 DUP4 ADD MSTORE PUSH2 0x1728 DUP2 PUSH2 0x16EF JUMP JUMPDEST SWAP1 POP SWAP2 SWAP1 POP JUMP JUMPDEST PUSH32 0x526174696F20646520636F757665727475726520656C65766500000000000000 PUSH0 DUP3 ADD MSTORE POP JUMP JUMPDEST PUSH0 PUSH2 0x1763 PUSH1 0x19 DUP4 PUSH2 0x1186 JUMP JUMPDEST SWAP2 POP PUSH2 0x176E DUP3 PUSH2 0x172F JUMP JUMPDEST PUSH1 0x20 DUP3 ADD SWAP1 POP SWAP2 SWAP1 POP JUMP JUMPDEST PUSH0 PUSH1 0x40 DUP3 ADD SWAP1 POP DUP2 DUP2 SUB PUSH0 DUP4 ADD MSTORE PUSH2 0x1790 DUP2 PUSH2 0x1757 JUMP JUMPDEST SWAP1 POP PUSH2 0x179F PUSH1 0x20 DUP4 ADD DUP5 PUSH2 0xFDA JUMP JUMPDEST SWAP3 SWAP2 POP POP JUMP JUMPDEST PUSH32 0x53636F72652064652072697371756520656C6576650000000000000000000000 PUSH0 DUP3 ADD MSTORE POP JUMP JUMPDEST PUSH0 PUSH2 0x17D9 PUSH1 0x15 DUP4 PUSH2 0x1186 JUMP JUMPDEST SWAP2 POP PUSH2 0x17E4 DUP3 PUSH2 0x17A5 JUMP JUMPDEST PUSH1 0x20 DUP3 ADD SWAP1 POP SWAP2 SWAP1 POP JUMP JUMPDEST PUSH0 PUSH1 0x40 DUP3 ADD SWAP1 POP DUP2 DUP2 SUB PUSH0 DUP4 ADD MSTORE PUSH2 0x1806 DUP2 PUSH2 0x17CD JUMP JUMPDEST SWAP1 POP PUSH2 0x1815 PUSH1 0x20 DUP4 ADD DUP5 PUSH2 0xFDA JUMP JUMPDEST SWAP3 SWAP2 POP POP JUMP INVALID LOG2 PUSH5 0x6970667358 0x22 SLT KECCAK256 SWAP15 SELFDESTRUCT DUP7 SWAP10 PUSH9 0xCC3523CF42EF928995 SWAP4 CALLCODE 0xDE EXTCODESIZE 0xD1 0xA9 0xC3 NUMBER SMOD 0xBE SWAP8 0x2B 0xE BASEFEE PUSH20 0xBF071464736F6C634300081A0033000000000000 "
				},
				"gasEstimates": {
					"creation": {
						"codeDepositCost": "1245000",
						"executionCost": "1293",
						"totalCost": "1246293"
					},
					"external": {
						"ajouterContrepartie(address,uint256,uint256,uint256,uint256)": "infinite",
						"calculerPertesAttendues(address)": "infinite",
						"calculerRatioCouverture(address)": "infinite",
						"calculerRisque(address)": "infinite",
						"contreparties(address)": "infinite",
						"mettreAJourCollateral(address,uint256)": "25039",
						"mettreAJourExposition(address,uint256)": "infinite"
					},
					"internal": {
						"verifierAlertesEtLimites(address)": "infinite"
					}
				},
				"methodIdentifiers": {
					"ajouterContrepartie(address,uint256,uint256,uint256,uint256)": "c04dcc30",
					"calculerPertesAttendues(address)": "2d83e6b1",
					"calculerRatioCouverture(address)": "0aae162e",
					"calculerRisque(address)": "8e068eb0",
					"contreparties(address)": "760b1eee",
					"mettreAJourCollateral(address,uint256)": "5d8886c0",
					"mettreAJourExposition(address,uint256)": "1922701e"
				}
			},
			"storageLayout": {
				"storage": [
					{
						"astId": 23,
						"contract": "RisqueDeContrepartie.sol:GestionnaireRisqueContrepartie",
						"label": "contreparties",
						"offset": 0,
						"slot": "0",
						"type": "t_mapping(t_address,t_struct(Contrepartie)18_storage)"
					}
				],
				"types": {
					"t_address": {
						"encoding": "inplace",
						"label": "address",
						"numberOfBytes": "20"
					},
					"t_bool": {
						"encoding": "inplace",
						"label": "bool",
						"numberOfBytes": "1"
					},
					"t_mapping(t_address,t_struct(Contrepartie)18_storage)": {
						"encoding": "mapping",
						"key": "t_address",
						"label": "mapping(address => struct GestionnaireRisqueContrepartie.Contrepartie)",
						"numberOfBytes": "32",
						"value": "t_struct(Contrepartie)18_storage"
					},
					"t_struct(Contrepartie)18_storage": {
						"encoding": "inplace",
						"label": "struct GestionnaireRisqueContrepartie.Contrepartie",
						"members": [
							{
								"astId": 3,
								"contract": "RisqueDeContrepartie.sol:GestionnaireRisqueContrepartie",
								"label": "portefeuille",
								"offset": 0,
								"slot": "0",
								"type": "t_address"
							},
							{
								"astId": 5,
								"contract": "RisqueDeContrepartie.sol:GestionnaireRisqueContrepartie",
								"label": "scoreCredit",
								"offset": 0,
								"slot": "1",
								"type": "t_uint256"
							},
							{
								"astId": 7,
								"contract": "RisqueDeContrepartie.sol:GestionnaireRisqueContrepartie",
								"label": "limiteExposition",
								"offset": 0,
								"slot": "2",
								"type": "t_uint256"
							},
							{
								"astId": 9,
								"contract": "RisqueDeContrepartie.sol:GestionnaireRisqueContrepartie",
								"label": "expositionCourante",
								"offset": 0,
								"slot": "3",
								"type": "t_uint256"
							},
							{
								"astId": 11,
								"contract": "RisqueDeContrepartie.sol:GestionnaireRisqueContrepartie",
								"label": "collateral",
								"offset": 0,
								"slot": "4",
								"type": "t_uint256"
							},
							{
								"astId": 13,
								"contract": "RisqueDeContrepartie.sol:GestionnaireRisqueContrepartie",
								"label": "probabiliteDefaut",
								"offset": 0,
								"slot": "5",
								"type": "t_uint256"
							},
							{
								"astId": 15,
								"contract": "RisqueDeContrepartie.sol:GestionnaireRisqueContrepartie",
								"label": "pertesEnCasDeDefaut",
								"offset": 0,
								"slot": "6",
								"type": "t_uint256"
							},
							{
								"astId": 17,
								"contract": "RisqueDeContrepartie.sol:GestionnaireRisqueContrepartie",
								"label": "estActif",
								"offset": 0,
								"slot": "7",
								"type": "t_bool"
							}
						],
						"numberOfBytes": "256"
					},
					"t_uint256": {
						"encoding": "inplace",
						"label": "uint256",
						"numberOfBytes": "32"
					}
				}
			},
			"userdoc": {
				"kind": "user",
				"methods": {},
				"version": 1
			}
		}
	}
}